{
  "_format": "hh-sol-artifact-1",
  "contractName": "Exchange",
  "sourceName": "contracts/Exchange.sol",
  "abi": [
    {
      "anonymous": false,
      "inputs": [
        {
          "indexed": false,
          "internalType": "address",
          "name": "accountBalance",
          "type": "address"
        }
      ],
      "name": "AccountBalanceChanged",
      "type": "event"
    },
    {
      "anonymous": false,
      "inputs": [
        {
          "indexed": true,
          "internalType": "address",
          "name": "clearingHouse",
          "type": "address"
        }
      ],
      "name": "ClearingHouseChanged",
      "type": "event"
    },
    {
      "anonymous": false,
      "inputs": [
        {
          "indexed": true,
          "internalType": "address",
          "name": "baseToken",
          "type": "address"
        },
        {
          "indexed": false,
          "internalType": "uint256",
          "name": "markTwap",
          "type": "uint256"
        },
        {
          "indexed": false,
          "internalType": "uint256",
          "name": "indexTwap",
          "type": "uint256"
        }
      ],
      "name": "FundingUpdated",
      "type": "event"
    },
    {
      "anonymous": false,
      "inputs": [
        {
          "indexed": true,
          "internalType": "address",
          "name": "baseToken",
          "type": "address"
        },
        {
          "indexed": false,
          "internalType": "uint24",
          "name": "maxTickCrossedWithinBlock",
          "type": "uint24"
        }
      ],
      "name": "MaxTickCrossedWithinBlockChanged",
      "type": "event"
    },
    {
      "anonymous": false,
      "inputs": [
        {
          "indexed": true,
          "internalType": "address",
          "name": "previousOwner",
          "type": "address"
        },
        {
          "indexed": true,
          "internalType": "address",
          "name": "newOwner",
          "type": "address"
        }
      ],
      "name": "OwnershipTransferred",
      "type": "event"
    },
    {
      "inputs": [],
      "name": "candidate",
      "outputs": [
        {
          "internalType": "address",
          "name": "",
          "type": "address"
        }
      ],
      "stateMutability": "view",
      "type": "function"
    },
    {
      "inputs": [],
      "name": "getAccountBalance",
      "outputs": [
        {
          "internalType": "address",
          "name": "",
          "type": "address"
        }
      ],
      "stateMutability": "view",
      "type": "function"
    },
    {
      "inputs": [
        {
          "internalType": "address",
          "name": "trader",
          "type": "address"
        }
      ],
      "name": "getAllPendingFundingPayment",
      "outputs": [
        {
          "internalType": "int256",
          "name": "pendingFundingPayment",
          "type": "int256"
        }
      ],
      "stateMutability": "view",
      "type": "function"
    },
    {
      "inputs": [],
      "name": "getClearingHouse",
      "outputs": [
        {
          "internalType": "address",
          "name": "",
          "type": "address"
        }
      ],
      "stateMutability": "view",
      "type": "function"
    },
    {
      "inputs": [],
      "name": "getClearingHouseConfig",
      "outputs": [
        {
          "internalType": "address",
          "name": "",
          "type": "address"
        }
      ],
      "stateMutability": "view",
      "type": "function"
    },
    {
      "inputs": [],
      "name": "getMarketRegistry",
      "outputs": [
        {
          "internalType": "address",
          "name": "",
          "type": "address"
        }
      ],
      "stateMutability": "view",
      "type": "function"
    },
    {
      "inputs": [
        {
          "internalType": "address",
          "name": "baseToken",
          "type": "address"
        }
      ],
      "name": "getMaxTickCrossedWithinBlock",
      "outputs": [
        {
          "internalType": "uint24",
          "name": "",
          "type": "uint24"
        }
      ],
      "stateMutability": "view",
      "type": "function"
    },
    {
      "inputs": [],
      "name": "getOrderBook",
      "outputs": [
        {
          "internalType": "address",
          "name": "",
          "type": "address"
        }
      ],
      "stateMutability": "view",
      "type": "function"
    },
    {
      "inputs": [
        {
          "internalType": "address",
          "name": "trader",
          "type": "address"
        },
        {
          "internalType": "address",
          "name": "baseToken",
          "type": "address"
        }
      ],
      "name": "getPendingFundingPayment",
      "outputs": [
        {
          "internalType": "int256",
          "name": "",
          "type": "int256"
        }
      ],
      "stateMutability": "view",
      "type": "function"
    },
    {
      "inputs": [
        {
          "components": [
            {
              "internalType": "address",
              "name": "trader",
              "type": "address"
            },
            {
              "internalType": "address",
              "name": "baseToken",
              "type": "address"
            },
            {
              "internalType": "int256",
              "name": "base",
              "type": "int256"
            },
            {
              "internalType": "int256",
              "name": "quote",
              "type": "int256"
            }
          ],
          "internalType": "struct IExchange.RealizePnlParams",
          "name": "params",
          "type": "tuple"
        }
      ],
      "name": "getPnlToBeRealized",
      "outputs": [
        {
          "internalType": "int256",
          "name": "",
          "type": "int256"
        }
      ],
      "stateMutability": "view",
      "type": "function"
    },
    {
      "inputs": [
        {
          "internalType": "address",
          "name": "baseToken",
          "type": "address"
        },
        {
          "internalType": "uint32",
          "name": "twapInterval",
          "type": "uint32"
        }
      ],
      "name": "getSqrtMarkTwapX96",
      "outputs": [
        {
          "internalType": "uint160",
          "name": "",
          "type": "uint160"
        }
      ],
      "stateMutability": "view",
      "type": "function"
    },
    {
      "inputs": [
        {
          "internalType": "address",
          "name": "marketRegistryArg",
          "type": "address"
        },
        {
          "internalType": "address",
          "name": "orderBookArg",
          "type": "address"
        },
        {
          "internalType": "address",
          "name": "clearingHouseConfigArg",
          "type": "address"
        }
      ],
      "name": "initialize",
      "outputs": [],
      "stateMutability": "nonpayable",
      "type": "function"
    },
    {
      "inputs": [
        {
          "internalType": "address",
          "name": "baseToken",
          "type": "address"
        }
      ],
      "name": "isOverPriceSpread",
      "outputs": [
        {
          "internalType": "bool",
          "name": "",
          "type": "bool"
        }
      ],
      "stateMutability": "view",
      "type": "function"
    },
    {
      "inputs": [],
      "name": "owner",
      "outputs": [
        {
          "internalType": "address",
          "name": "",
          "type": "address"
        }
      ],
      "stateMutability": "view",
      "type": "function"
    },
    {
      "inputs": [],
      "name": "renounceOwnership",
      "outputs": [],
      "stateMutability": "nonpayable",
      "type": "function"
    },
    {
      "inputs": [
        {
          "internalType": "address",
          "name": "accountBalanceArg",
          "type": "address"
        }
      ],
      "name": "setAccountBalance",
      "outputs": [],
      "stateMutability": "nonpayable",
      "type": "function"
    },
    {
      "inputs": [
        {
          "internalType": "address",
          "name": "clearingHouseArg",
          "type": "address"
        }
      ],
      "name": "setClearingHouse",
      "outputs": [],
      "stateMutability": "nonpayable",
      "type": "function"
    },
    {
      "inputs": [
        {
          "internalType": "address",
          "name": "baseToken",
          "type": "address"
        },
        {
          "internalType": "uint24",
          "name": "maxTickCrossedWithinBlock",
          "type": "uint24"
        }
      ],
      "name": "setMaxTickCrossedWithinBlock",
      "outputs": [],
      "stateMutability": "nonpayable",
      "type": "function"
    },
    {
      "inputs": [
        {
          "internalType": "address",
          "name": "newOwner",
          "type": "address"
        }
      ],
      "name": "setOwner",
      "outputs": [],
      "stateMutability": "nonpayable",
      "type": "function"
    },
    {
      "inputs": [
        {
          "internalType": "address",
          "name": "trader",
          "type": "address"
        },
        {
          "internalType": "address",
          "name": "baseToken",
          "type": "address"
        }
      ],
      "name": "settleFunding",
      "outputs": [
        {
          "internalType": "int256",
          "name": "fundingPayment",
          "type": "int256"
        },
        {
          "components": [
            {
              "internalType": "int256",
              "name": "twPremiumX96",
              "type": "int256"
            },
            {
              "internalType": "int256",
              "name": "twPremiumDivBySqrtPriceX96",
              "type": "int256"
            }
          ],
          "internalType": "struct Funding.Growth",
          "name": "fundingGrowthGlobal",
          "type": "tuple"
        }
      ],
      "stateMutability": "nonpayable",
      "type": "function"
    },
    {
      "inputs": [
        {
          "components": [
            {
              "internalType": "address",
              "name": "trader",
              "type": "address"
            },
            {
              "internalType": "address",
              "name": "baseToken",
              "type": "address"
            },
            {
              "internalType": "bool",
              "name": "isBaseToQuote",
              "type": "bool"
            },
            {
              "internalType": "bool",
              "name": "isExactInput",
              "type": "bool"
            },
            {
              "internalType": "bool",
              "name": "isClose",
              "type": "bool"
            },
            {
              "internalType": "uint256",
              "name": "amount",
              "type": "uint256"
            },
            {
              "internalType": "uint160",
              "name": "sqrtPriceLimitX96",
              "type": "uint160"
            }
          ],
          "internalType": "struct IExchange.SwapParams",
          "name": "params",
          "type": "tuple"
        }
      ],
      "name": "swap",
      "outputs": [
        {
          "components": [
            {
              "internalType": "uint256",
              "name": "base",
              "type": "uint256"
            },
            {
              "internalType": "uint256",
              "name": "quote",
              "type": "uint256"
            },
            {
              "internalType": "int256",
              "name": "exchangedPositionSize",
              "type": "int256"
            },
            {
              "internalType": "int256",
              "name": "exchangedPositionNotional",
              "type": "int256"
            },
            {
              "internalType": "uint256",
              "name": "fee",
              "type": "uint256"
            },
            {
              "internalType": "uint256",
              "name": "insuranceFundFee",
              "type": "uint256"
            },
            {
              "internalType": "int256",
              "name": "pnlToBeRealized",
              "type": "int256"
            },
            {
              "internalType": "uint256",
              "name": "sqrtPriceAfterX96",
              "type": "uint256"
            },
            {
              "internalType": "int24",
              "name": "tick",
              "type": "int24"
            },
            {
              "internalType": "bool",
              "name": "isPartialClose",
              "type": "bool"
            }
          ],
          "internalType": "struct IExchange.SwapResponse",
          "name": "",
          "type": "tuple"
        }
      ],
      "stateMutability": "nonpayable",
      "type": "function"
    },
    {
      "inputs": [
        {
          "internalType": "int256",
          "name": "amount0Delta",
          "type": "int256"
        },
        {
          "internalType": "int256",
          "name": "amount1Delta",
          "type": "int256"
        },
        {
          "internalType": "bytes",
          "name": "data",
          "type": "bytes"
        }
      ],
      "name": "uniswapV3SwapCallback",
      "outputs": [],
      "stateMutability": "nonpayable",
      "type": "function"
    },
    {
      "inputs": [],
      "name": "updateOwner",
      "outputs": [],
      "stateMutability": "nonpayable",
      "type": "function"
    }
  ],
  "bytecode": "0x608060405234801561001057600080fd5b50614b30806100206000396000f3fe608060405234801561001057600080fd5b506004361061014d5760003560e01c806380f57f11116100c3578063c0c53b8b1161007c578063c0c53b8b14610295578063c575ff79146102a8578063c66b8ed2146102b0578063cb379aa2146102b8578063fa461e33146102cb578063ff818011146102de5761014d565b806380f57f111461024f5780638da5cb5b1461026257806399e4a7711461026a578063aa2a82941461027d578063b248c4ef14610285578063bc5920ba1461028d5761014d565b80634314ca1c116101155780634314ca1c146101e4578063449323d8146102045780635eb8a4e6146102175780636896fabf1461022a5780636c8381f81461023f578063715018a6146102475761014d565b80631393a4691461015257806313af40351461017b578063199387cc146101905780631e81ac33146101a357806329386b7b146101c4575b600080fd5b61016561016036600461422b565b6102fe565b60405161017291906145a9565b60405180910390f35b61018e610189366004613e16565b610424565b005b61018e61019e366004613e16565b61057f565b6101b66101b1366004613e4e565b610661565b6040516101729291906145ef565b6101d76101d2366004613e16565b610b32565b60405161017291906148f3565b6101f76101f23660046142f1565b610b52565b6040516101729190614870565b61018e610212366004613e16565b610f5f565b61018e610225366004613ed0565b611006565b6102326111c3565b6040516101729190614482565b6102326111d2565b61018e6111e1565b61016561025d366004613e16565b611282565b610232611354565b610232610278366004613efd565b611363565b6102326113f9565b610232611408565b61018e611417565b61018e6102a3366004613e86565b611503565b610232611645565b610232611654565b6101656102c6366004613e4e565b611663565b61018e6102d93660046140e0565b61181a565b6102f16102ec366004613e16565b6119ba565b604051610172919061459e565b60ce54815160208301516040516331997f7b60e11b815260009384936001600160a01b0390911692636332fef69261033a929190600401614496565b60606040518083038186803b15801561035257600080fd5b505afa158015610366573d6000803e3d6000fd5b505050506040513d601f19601f8201168201806040525081019061038a919061415a565b6020810151815191925090600081156103b05760408601516000808412911214156103b3565b60005b9050806103c1576000610418565b6104186040518060c0016040528088600001516001600160a01b0316815260200188602001516001600160a01b03168152602001848152602001858152602001886040015181526020018860600151815250611b22565b9450505050505b919050565b61042c611bd7565b6001600160a01b031661043d611354565b6001600160a01b031614610481576040805162461bcd60e51b8152602060048201526006602482015265534f5f434e4f60d01b604482015290519081900360640190fd5b6001600160a01b0381166104c5576040805162461bcd60e51b81526020600482015260066024820152650534f5f4e57360d41b604482015290519081900360640190fd5b6033546001600160a01b0382811691161415610511576040805162461bcd60e51b8152602060048201526006602482015265534f5f53414f60d01b604482015290519081900360640190fd5b6034546001600160a01b038281169116141561055d576040805162461bcd60e51b8152602060048201526006602482015265534f5f53414360d01b604482015290519081900360640190fd5b603480546001600160a01b0319166001600160a01b0392909216919091179055565b610587611bd7565b6001600160a01b0316610598611354565b6001600160a01b0316146105dc576040805162461bcd60e51b8152602060048201526006602482015265534f5f434e4f60d01b604482015290519081900360640190fd5b6001600160a01b03811661060b5760405162461bcd60e51b815260040161060290614667565b60405180910390fd5b60ce80546001600160a01b0319166001600160a01b0383161790556040517f2b28168781da733c8a034f84683b9c955f156de5e07e24920b1348f51445d3e690610656908390614482565b60405180910390a150565b600061066b613cb5565b610673611bdb565b609a54604051631246dbf560e01b81526001600160a01b0390911690631246dbf5906106a3908690600401614482565b60206040518083038186803b1580156106bb57600080fd5b505afa1580156106cf573d6000803e3d6000fd5b505050506040513d601f19601f820116820180604052508101906106f39190614089565b61070f5760405162461bcd60e51b815260040161060290614603565b826001600160a01b0316631d1a111a60cf60009054906101000a90046001600160a01b03166001600160a01b0316633e742e3b6040518163ffffffff1660e01b815260040160206040518083038186803b15801561076c57600080fd5b505afa158015610780573d6000803e3d6000fd5b505050506040513d601f19601f820116820180604052508101906107a49190614441565b6040518263ffffffff1660e01b81526004016107c09190614911565b600060405180830381600087803b1580156107da57600080fd5b505af19250505080156107eb575060015b506000806107f885611c17565b60ce546040516359deb70960e11b8152939650919450925061091691889188916001600160a01b039091169063b3bd6e129061083a9085908590600401614496565b60206040518083038186803b15801561085257600080fd5b505afa158015610866573d6000803e3d6000fd5b505050506040513d601f19601f8201168201806040525081019061088a91906140a5565b60ce546040516331997f7b60e11b81526001600160a01b0390911690636332fef6906108bc908d908d90600401614496565b60606040518083038186803b1580156108d457600080fd5b505afa1580156108e8573d6000803e3d6000fd5b505050506040513d601f19601f8201168201806040525081019061090c919061415a565b60400151876120b4565b93506000856001600160a01b03166347535d7b6040518163ffffffff1660e01b815260040160206040518083038186803b15801561095357600080fd5b505afa158015610967573d6000803e3d6000fd5b505050506040513d601f19601f8201168201806040525081019061098b9190614089565b610a0557856001600160a01b031663fe3434616040518163ffffffff1660e01b815260040160206040518083038186803b1580156109c857600080fd5b505afa1580156109dc573d6000803e3d6000fd5b505050506040513d601f19601f82011682018060405250810190610a0091906140a5565b610a0d565b610a0d612158565b6001600160a01b038716600090815260d260205260409020549091508114610aa5576001600160a01b038616600081815260d36020908152604080832088518984015160d290945293829020600182019390935592835590849055519091907f54e4482fe1d38392effe5d53f0e9e72f60221a75a10cea7abbb684bfb03519bf90610a9b9087908790614903565b60405180910390a2505b6001600160a01b038616600090815260d66020526040902054610ac981600f61215c565b8210610b27576001600160a01b038716600090815260d660205260409020829055610af3876121b6565b6001600160a01b038816600090815260d060205260409020805460029290920b62ffffff1662ffffff199092169190911790555b505050509250929050565b6001600160a01b0316600090815260d4602052604090205462ffffff1690565b610b5a613ccf565b610b62611bdb565b6020808301516001600160a01b0316600090815260d4909152604090205462ffffff16610ba15760405162461bcd60e51b815260040161060290614762565b60ce548251602084015160405163165c4e2960e31b81526000936001600160a01b03169263b2e2714892610bd792600401614496565b60206040518083038186803b158015610bef57600080fd5b505afa158015610c03573d6000803e3d6000fd5b505050506040513d601f19601f82011682018060405250810190610c2791906140a5565b9050600083608001518015610c3b57508115155b15610cf557610c568460200151600084128660a001516121fb565b15610cf55760cf5460408051633a14199b60e11b815290516000926001600160a01b0316916374283336916004808301926020929190829003018186803b158015610ca057600080fd5b505afa158015610cb4573d6000803e3d6000fd5b505050506040513d601f19601f82011682018060405250810190610cd89190614425565b60a0860151909150610cea908261225d565b60a086015250600190505b60ce548451602086015160405163d50d01b760e01b81526000936001600160a01b03169263d50d01b792610d2b92600401614496565b60206040518083038186803b158015610d4357600080fd5b505afa158015610d57573d6000803e3d6000fd5b505050506040513d601f19601f82011682018060405250810190610d7b91906140a5565b90506000610d8886612272565b9050610d9c86602001518260c00151612692565b15610db95760405162461bcd60e51b815260040161060290614645565b60008415610dd35760408701511515600086121415610dd6565b60005b905060008115610e3a57610e376040518060c001604052808a600001516001600160a01b031681526020018a602001516001600160a01b03168152602001888152602001868152602001856000015181526020018560200151815250611b22565b90505b609a54602089015160405163bbe4f6db60e01b8152600092610ec9926001600160a01b039091169163bbe4f6db91610e7491600401614482565b60206040518083038186803b158015610e8c57600080fd5b505afa158015610ea0573d6000803e3d6000fd5b505050506040513d601f19601f82011682018060405250810190610ec49190613e32565b61271b565b5050505050506001600160a01b03169050604051806101400160405280610ef386600001516127ae565b8152602001610f0586602001516127ae565b81526020018560400151815260200185606001518152602001856080015181526020018560a0015181526020018381526020018281526020018560c0015160020b8152602001871515815250975050505050505050919050565b610f67611bd7565b6001600160a01b0316610f78611354565b6001600160a01b031614610fbc576040805162461bcd60e51b8152602060048201526006602482015265534f5f434e4f60d01b604482015290519081900360640190fd5b606780546001600160a01b0319166001600160a01b0383169081179091556040517fd0654f5900f9e7e4e605a19334306e6a2786bbf960ac0484a4c12feb6428fe2f90600090a250565b61100e611bd7565b6001600160a01b031661101f611354565b6001600160a01b031614611063576040805162461bcd60e51b8152602060048201526006602482015265534f5f434e4f60d01b604482015290519081900360640190fd5b611075826001600160a01b03166127d7565b6110915760405162461bcd60e51b815260040161060290614782565b609a54604051631246dbf560e01b81526001600160a01b0390911690631246dbf5906110c1908590600401614482565b60206040518083038186803b1580156110d957600080fd5b505afa1580156110ed573d6000803e3d6000fd5b505050506040513d601f19601f820116820180604052508101906111119190614089565b61112d5760405162461bcd60e51b815260040161060290614603565b6111356127dd565b62ffffff168162ffffff16111561115e5760405162461bcd60e51b8152600401610602906146a6565b6001600160a01b038216600081815260d4602052604090819020805462ffffff191662ffffff8516179055517f998d553f208e581d188c66da9e7d19bac5ca64d002753791210c4271c8e955d0906111b79084906148f3565b60405180910390a25050565b60ce546001600160a01b031690565b6034546001600160a01b031690565b6111e9611bd7565b6001600160a01b03166111fa611354565b6001600160a01b03161461123e576040805162461bcd60e51b8152602060048201526006602482015265534f5f434e4f60d01b604482015290519081900360640190fd5b6033546040516000916001600160a01b031690600080516020614a42833981519152908390a3603380546001600160a01b0319908116909155603480549091169055565b60ce546040516357ba739b60e11b815260009182916001600160a01b039091169063af74e736906112b7908690600401614482565b60006040518083038186803b1580156112cf57600080fd5b505afa1580156112e3573d6000803e3d6000fd5b505050506040513d6000823e601f3d908101601f1916820160405261130b9190810190613f2a565b805190915060005b8181101561134c5761134261133b8685848151811061132e57fe5b6020026020010151611663565b85906127e3565b9350600101611313565b505050919050565b6033546001600160a01b031690565b609a5460405163bbe4f6db60e01b81526000916113f0916001600160a01b039091169063bbe4f6db9061139a908790600401614482565b60206040518083038186803b1580156113b257600080fd5b505afa1580156113c6573d6000803e3d6000fd5b505050506040513d601f19601f820116820180604052508101906113ea9190613e32565b83612848565b90505b92915050565b60cf546001600160a01b031690565b60cd546001600160a01b031690565b6034546001600160a01b031661145c576040805162461bcd60e51b81526020600482015260056024820152640534f5f43360dc1b604482015290519081900360640190fd5b611464611bd7565b6034546001600160a01b039081169116146114af576040805162461bcd60e51b8152602060048201526006602482015265534f5f434e4360d01b604482015290519081900360640190fd5b6034546033546040516001600160a01b039283169290911690600080516020614a4283398151915290600090a360348054603380546001600160a01b03199081166001600160a01b03841617909155169055565b600054610100900460ff168061151c575061151c612856565b8061152a575060005460ff16155b6115655760405162461bcd60e51b815260040180806020018281038252602e8152602001806149f3602e913960400191505060405180910390fd5b600054610100900460ff16158015611590576000805460ff1961ff0019909116610100171660011790555b611598612867565b6115a184612911565b6115b3836001600160a01b03166127d7565b6115cf5760405162461bcd60e51b815260040161060290614686565b6115e1826001600160a01b03166127d7565b6115fd5760405162461bcd60e51b815260040161060290614722565b60cd80546001600160a01b038086166001600160a01b03199283161790925560cf805492851692909116919091179055801561163f576000805461ff00191690555b50505050565b6067546001600160a01b031690565b609a546001600160a01b031690565b60008061166f83611c17565b505060cd546040516347b52fb760e01b81529192506000916001600160a01b03909116906347b52fb7906116ab908890889087906004016144b0565b60206040518083038186803b1580156116c357600080fd5b505afa1580156116d7573d6000803e3d6000fd5b505050506040513d601f19601f820116820180604052508101906116fb91906140a5565b60ce546040516359deb70960e11b8152919250611811916001600160a01b039091169063b3bd6e12906117349089908990600401614496565b60206040518083038186803b15801561174c57600080fd5b505afa158015611760573d6000803e3d6000fd5b505050506040513d601f19601f8201168201806040525081019061178491906140a5565b60ce546040516331997f7b60e11b81526001600160a01b0390911690636332fef6906117b6908a908a90600401614496565b60606040518083038186803b1580156117ce57600080fd5b505afa1580156117e2573d6000803e3d6000fd5b505050506040513d601f19601f82011682018060405250810190611806919061415a565b6040015184846129d7565b95945050505050565b6000611824611bd7565b90506000816001600160a01b0316630dfe16816040518163ffffffff1660e01b815260040160206040518083038186803b15801561186157600080fd5b505afa158015611875573d6000803e3d6000fd5b505050506040513d601f19601f820116820180604052508101906118999190613e32565b609a5460405163bbe4f6db60e01b81529192506001600160a01b03169063bbe4f6db906118ca908490600401614482565b60206040518083038186803b1580156118e257600080fd5b505afa1580156118f6573d6000803e3d6000fd5b505050506040513d601f19601f8201168201806040525081019061191a9190613e32565b6001600160a01b0316826001600160a01b03161461194a5760405162461bcd60e51b8152600401610602906146ca565b60675460405163fa461e3360e01b81526001600160a01b039091169063fa461e33906119809089908990899089906004016145b2565b600060405180830381600087803b15801561199a57600080fd5b505af11580156119ae573d6000803e3d6000fd5b50505050505050505050565b6000806119e16119dc6119ce856000611363565b6001600160a01b0316612a22565b612a3c565b90506000836001600160a01b0316631208064760cf60009054906101000a90046001600160a01b03166001600160a01b0316633e742e3b6040518163ffffffff1660e01b815260040160206040518083038186803b158015611a4257600080fd5b505afa158015611a56573d6000803e3d6000fd5b505050506040513d601f19601f82011682018060405250810190611a7a9190614441565b6040518263ffffffff1660e01b8152600401611a969190614911565b60206040518083038186803b158015611aae57600080fd5b505afa158015611ac2573d6000803e3d6000fd5b505050506040513d601f19601f82011682018060405250810190611ae691906140a5565b90506000818311611b0057611afb8284612a55565b611b0a565b611b0a8383612a55565b9050611b1982620186a061225d565b10949350505050565b600080611b50611b3584608001516127ae565b670de0b6b3a7640000611b4b86604001516127ae565b612ab2565b90506000670de0b6b3a76400008211611b9f576000611b85611b7184612b61565b606087015190670de0b6b3a7640000612bad565b60a0860151909150611b9790826127e3565b915050611bd0565b60a0840151600090611bba90670de0b6b3a764000085612bad565b6060860151909150611bcc90826127e3565b9150505b9392505050565b3390565b6067546001600160a01b0316611bef611bd7565b6001600160a01b031614611c155760405162461bcd60e51b815260040161060290614624565b565b611c1f613cb5565b6000806000846001600160a01b03166347535d7b6040518163ffffffff1660e01b815260040160206040518083038186803b158015611c5d57600080fd5b505afa158015611c71573d6000803e3d6000fd5b505050506040513d601f19601f82011682018060405250810190611c959190614089565b9050600081611d1457856001600160a01b031663fe3434616040518163ffffffff1660e01b815260040160206040518083038186803b158015611cd757600080fd5b505afa158015611ceb573d6000803e3d6000fd5b505050506040513d601f19601f82011682018060405250810190611d0f91906140a5565b611d1c565b611d1c612158565b6001600160a01b038716600090815260d160205260408120549192509015611e165760cf60009054906101000a90046001600160a01b03166001600160a01b0316633e742e3b6040518163ffffffff1660e01b815260040160206040518083038186803b158015611d8c57600080fd5b505afa158015611da0573d6000803e3d6000fd5b505050506040513d601f19601f82011682018060405250810190611dc49190614441565b6001600160a01b038816600090815260d1602052604081205491925090611df590611df0908590612a55565b612c51565b90508063ffffffff168263ffffffff1611611e105781611e12565b805b9150505b60008315611eb157611e2b6119ce8984611363565b604051631208064760e01b81529091506001600160a01b03891690631208064790611e5a908590600401614911565b60206040518083038186803b158015611e7257600080fd5b505afa158015611e86573d6000803e3d6000fd5b505050506040513d601f19601f82011682018060405250810190611eaa91906140a5565b9450611fcf565b6000611ec8611df085611ec2612158565b90612a55565b609a5460405163bbe4f6db60e01b8152919250611f58916119ce916001600160a01b03169063bbe4f6db90611f01908e90600401614482565b60206040518083038186803b158015611f1957600080fd5b505afa158015611f2d573d6000803e3d6000fd5b505050506040513d601f19601f82011682018060405250810190611f519190613e32565b8386612c96565b9150886001600160a01b0316631c2ab4056040518163ffffffff1660e01b815260040160206040518083038186803b158015611f9357600080fd5b505afa158015611fa7573d6000803e3d6000fd5b505050506040513d601f19601f82011682018060405250810190611fcb91906140a5565b9550505b611fd881612a3c565b6001600160a01b038916600090815260d2602090815260408083205460d3909252909120919750908482148061200c575081155b156120305760408051808201909152815481526001820154602082015298506120a7565b600061205f6120476120428886612a55565b612b61565b612059866120548c612dfb565b612e14565b90612f1e565b825490915061206e90826127e3565b8a526120a061209582600160601b6120878f6000611363565b6001600160a01b0316612bad565b6001840154906127e3565b60208b0152505b5050505050509193909250565b60cd54604051633fe1339b60e11b815260009182916001600160a01b0390911690637fc26736906120ed908a908a9088906004016144b0565b602060405180830381600087803b15801561210757600080fd5b505af115801561211b573d6000803e3d6000fd5b505050506040513d601f19601f8201168201806040525081019061213f91906140a5565b905061214d858585846129d7565b979650505050505050565b4290565b6000828201838110156113f0576040805162461bcd60e51b815260206004820152601b60248201527f536166654d6174683a206164646974696f6e206f766572666c6f770000000000604482015290519081900360640190fd5b609a5460405163bbe4f6db60e01b815260009182916121ed916001600160a01b03169063bbe4f6db90610e74908790600401614482565b509398975050505050505050565b6000612255846122506040518060a00160405280886001600160a01b031681526020018715151581526020018715151581526020018681526020016122408989612fc7565b6001600160a01b03169052613052565b612692565b949350505050565b60006113f0838362ffffff16620f4240612ab2565b61227a613d27565b609a54602083015160405163033e16f360e21b81526000926001600160a01b031691630cf85bcc916122af9190600401614482565b60806040518083038186803b1580156122c757600080fd5b505afa1580156122db573d6000803e3d6000fd5b505050506040513d601f19601f820116820180604052508101906122ff91906141ae565b9050600080612325856040015186606001518760a00151866020015187604001516131fa565b9150915060006123388660200151611c17565b50509050600060cd60009054906101000a90046001600160a01b03166001600160a01b031663a3bf0df86040518061010001604052808a602001516001600160a01b031681526020018a60400151151581526020016001151581526020018681526020018a60c001516001600160a01b03168152602001886020015162ffffff168152602001886040015162ffffff168152602001858152506040518263ffffffff1660e01b81526004016123ed91906147a2565b606060405180830381600087803b15801561240757600080fd5b505af115801561241b573d6000803e3d6000fd5b505050506040513d601f19601f8201168201806040525081019061243f9190614298565b9050600061253b6040518060e0016040528088600001516001600160a01b03168152602001606760009054906101000a90046001600160a01b03166001600160a01b031681526020018a60400151151581526020018a60600151151581526020018781526020018a60c001516001600160a01b031681526020016040518060a001604052808c600001516001600160a01b031681526020018c602001516001600160a01b031681526020018a600001516001600160a01b031681526020018a6040015162ffffff16815260200186602001518152506040516020016125249190614826565b604051602081830303815290604052815250613286565b905060008089604001511561257c5761256661256184600001518a6040015160006134b0565b6134f7565b91506125758360200151612b61565b90506125e2565b825161258790612b61565b91508960600151801561259d5750868360200151145b156125c8576125756125c361204286602001518d60a00151612a5590919063ffffffff16565b61350b565b6125df61256184602001518a6040015160006134b0565b90505b6020808b01516001600160a01b0316600090815260d1909152604090205461262b5761260c612158565b6020808c01516001600160a01b0316600090815260d190915260409020555b6040518060e0016040528083815260200161265361264c8760200151612b61565b8490613537565b81526020018381526020018281526020018560200151815260200185604001518152602001856000015160020b81525098505050505050505050919050565b6001600160a01b038216600090815260d4602090815260408083205460d090925282205462ffffff90911690600290810b9083906126dc906126d79084900b856127e3565b61359c565b905060006126f66126d7600285900b62ffffff8716613537565b90508060020b8660020b128061214d57508160020b8660020b13979650505050505050565b6000806000806000806000876001600160a01b0316633850c7bd6040518163ffffffff1660e01b815260040160e06040518083038186803b15801561275f57600080fd5b505afa158015612773573d6000803e3d6000fd5b505050506040513d601f19601f820116820180604052508101906127979190614392565b959e949d50929b5090995097509550909350915050565b6000808212156127ce576127c96127c48361350b565b6135df565b6113f3565b6113f3826135df565b3b151590565b6103e890565b60008282018183128015906127f85750838112155b8061280d575060008312801561280d57508381125b6113f05760405162461bcd60e51b81526004018080602001828103825260218152602001806149a96021913960400191505060405180910390fd5b60006113f083600084612c96565b6000612861306127d7565b15905090565b600054610100900460ff16806128805750612880612856565b8061288e575060005460ff16155b6128c95760405162461bcd60e51b815260040180806020018281038252602e8152602001806149f3602e913960400191505060405180910390fd5b600054610100900460ff161580156128f4576000805460ff1961ff0019909116610100171660011790555b6128fc613636565b801561290e576000805461ff00191690555b50565b600054610100900460ff168061292a575061292a612856565b80612938575060005460ff16155b6129735760405162461bcd60e51b815260040180806020018281038252602e8152602001806149f3602e913960400191505060405180910390fd5b600054610100900460ff1615801561299e576000805460ff1961ff0019909116610100171660011790555b6129a6613725565b609a80546001600160a01b0319166001600160a01b03841617905580156129d3576000805461ff00191690555b5050565b6000806129ff866129f587876000015161353790919063ffffffff16565b600160601b612bad565b9050612a1862015180612a1285846127e3565b906137ba565b9695505050505050565b60006113f36001600160a01b03831680600160601b612ab2565b60006113f382670de0b6b3a7640000600160601b612ab2565b600082821115612aac576040805162461bcd60e51b815260206004820152601e60248201527f536166654d6174683a207375627472616374696f6e206f766572666c6f770000604482015290519081900360640190fd5b50900390565b6000808060001985870986860292508281109083900303905080612ae85760008411612add57600080fd5b508290049050611bd0565b808411612af457600080fd5b6000848688096000868103871696879004966002600389028118808a02820302808a02820302808a02820302808a02820302808a02820302808a02909103029181900381900460010186841190950394909402919094039290920491909117919091029150509392505050565b60006001600160ff1b03821115612ba95760405162461bcd60e51b8152600401808060200182810382526028815260200180614aaf6028913960400191505060405180910390fd5b5090565b60008060008512612bbe5784612bc7565b612bc78561350b565b90506000808512612bd85784612be1565b612be18561350b565b905060008087128015612bf45750600086135b80612c0a5750600087138015612c0a5750600086125b612c15576000612c18565b60015b90506000612c27848488612ab2565b905081612c3c57612c3781612b61565b612c45565b612c45816134f7565b98975050505050505050565b8063ffffffff8116811461041f5760405162461bcd60e51b8152600401808060200182810382526026815260200180614a896026913960400191505060405180910390fd5b6000600a8263ffffffff161015612cc2576000612cb28561271b565b50949650611bd095505050505050565b60408051600280825260608201835260009260208301908036833701905050905082840181600081518110612cf357fe5b602002602001019063ffffffff16908163ffffffff16815250508381600181518110612d1b57fe5b63ffffffff9092166020928302919091019091015260405163883bdbfd60e01b81526000906001600160a01b0387169063883bdbfd90612d5f908590600401614554565b60006040518083038186803b158015612d7757600080fd5b505afa158015612d8b573d6000803e3d6000fd5b505050506040513d6000823e601f3d908101601f19168201604052612db39190810190613fc2565b509050612a188463ffffffff1682600081518110612dcd57fe5b602002602001015183600181518110612de257fe5b60200260200101510360060b81612df557fe5b05613872565b60006113f382600160601b670de0b6b3a7640000612ab2565b60008060cf60009054906101000a90046001600160a01b03166001600160a01b0316636e1d2dd26040518163ffffffff1660e01b815260040160206040518083038186803b158015612e6557600080fd5b505afa158015612e79573d6000803e3d6000fd5b505050506040513d601f19601f82011682018060405250810190612e9d9190614425565b90506000612eab848361225d565b9050600084861115612ee857612ec18686612a55565b9050818111612ed857612ed381612b61565b612ee1565b612ee182612b61565b9350612f15565b612ef28587612a55565b9050818111612f0957612f04816134f7565b612f12565b612f12826134f7565b93505b50505092915050565b600082612f2d575060006113f3565b82600019148015612f415750600160ff1b82145b15612f7d5760405162461bcd60e51b8152600401808060200182810382526027815260200180614a626027913960400191505060405180910390fd5b82820282848281612f8a57fe5b05146113f05760405162461bcd60e51b8152600401808060200182810382526027815260200180614a626027913960400191505060405180910390fd5b6001600160a01b038216600090815260d0602090815260408083205460d490925282205460029190910b9062ffffff1682846130085760018284030361300f565b8183016001015b9050620d89e8600282900b13613025578061302a565b620d89e85b9050620d89e719600282900b126130415780613047565b620d89e7195b9050612f1281613872565b609a54815160405163033e16f360e21b815260009283926001600160a01b0390911691630cf85bcc9161308791600401614482565b60806040518083038186803b15801561309f57600080fd5b505afa1580156130b3573d6000803e3d6000fd5b505050506040513d601f19601f820116820180604052508101906130d791906141ae565b9050600081602001519050600082604001519050600061310686602001518760400151886060015186866131fa565b60cd5460408051610100810182528a516001600160a01b0390811682526020808d01511515818401526000838501819052606084018790526080808f015184169085015262ffffff808c1660a08601528a1660c08501528451808601865281815291820181905260e08401919091529251631477e1bf60e31b815294965091945091169163a3bf0df89161319c916004016147a2565b606060405180830381600087803b1580156131b657600080fd5b505af11580156131ca573d6000803e3d6000fd5b505050506040513d601f19601f820116820180604052508101906131ee9190614298565b51979650505050505050565b600080861561322c578561321957613214858560016134b0565b613225565b613225858460016134b0565b9150613247565b856132375784613244565b6132448584866001613b9a565b91505b8661325a5761325585612b61565b613263565b61326382612b61565b905085613278576132738161350b565b61327a565b805b90509550959350505050565b61328e613cb5565b600082606001516132ab576132a683608001516134f7565b6132b8565b6132b88360800151612b61565b905060008084600001516001600160a01b031663128acb0886602001518760400151868960a001516001600160a01b03166000146132fa578960a00151613324565b896040015161331d5773fffd8963efd1fc6a506488495d951d5263988d25613324565b6401000276a45b8a60c001516040518663ffffffff1660e01b81526004016133499594939291906144d5565b6040805180830381600087803b15801561336257600080fd5b505af1158015613376573d6000803e3d6000fd5b505050506040513d601f19601f8201168201806040525081019061339a91906140bd565b915091506000806133aa846127ae565b6133b3846127ae565b9150915060008760400151151588606001511515146133d257816133d4565b825b905087606001511580156133f3575060a08801516001600160a01b0316155b1561349457600a886080015182116134195760808901516134149083612a55565b613429565b6080890151613429908390612a55565b106134465760405162461bcd60e51b815260040161060290614742565b876040015161346d5760405180604001604052808960800151815260200183815250613487565b604051806040016040528084815260200189608001518152505b965050505050505061041f565b5060408051808201909152918252602082015295945050505050565b6000816134db576134d6846134cd620f424062ffffff8716612a55565b620f4240612ab2565b612255565b61225584620f42406134f28162ffffff8816612a55565b613bdb565b600061350282612b61565b60000392915050565b6000600160ff1b82136135305760405162461bcd60e51b8152600401610602906146eb565b5060000390565b600081830381831280159061354c5750838113155b80613561575060008312801561356157508381135b6113f05760405162461bcd60e51b8152600401808060200182810382526024815260200180614ad76024913960400191505060405180910390fd5b80600281900b811461041f5760405162461bcd60e51b81526004018080602001828103825260298152602001806149ca6029913960400191505060405180910390fd5b600080821215612ba9576040805162461bcd60e51b815260206004820181905260248201527f53616665436173743a2076616c7565206d75737420626520706f736974697665604482015290519081900360640190fd5b600054610100900460ff168061364f575061364f612856565b8061365d575060005460ff16155b6136985760405162461bcd60e51b815260040180806020018281038252602e8152602001806149f3602e913960400191505060405180910390fd5b600054610100900460ff161580156136c3576000805460ff1961ff0019909116610100171660011790555b6136cb613725565b60006136d5611bd7565b603380546001600160a01b0319166001600160a01b03831690811790915560405191925090600090600080516020614a42833981519152908290a350801561290e576000805461ff001916905550565b600054610100900460ff168061373e575061373e612856565b8061374c575060005460ff16155b6137875760405162461bcd60e51b815260040180806020018281038252602e8152602001806149f3602e913960400191505060405180910390fd5b600054610100900460ff161580156137b2576000805460ff1961ff0019909116610100171660011790555b6128fc613c15565b60008161380e576040805162461bcd60e51b815260206004820181905260248201527f5369676e6564536166654d6174683a206469766973696f6e206279207a65726f604482015290519081900360640190fd5b816000191480156138225750600160ff1b83145b1561385e5760405162461bcd60e51b8152600401808060200182810382526021815260200180614a216021913960400191505060405180910390fd5b600082848161386957fe5b05949350505050565b60008060008360020b12613889578260020b613891565b8260020b6000035b9050620d89e88111156138cf576040805162461bcd60e51b81526020600482015260016024820152601560fa1b604482015290519081900360640190fd5b6000600182166138e357600160801b6138f5565b6ffffcb933bd6fad37aa2d162d1a5940015b6001600160881b03169050600282161561391f576ffff97272373d413259a46990580e213a0260801c5b600482161561393e576ffff2e50f5f656932ef12357cf3c7fdcc0260801c5b600882161561395d576fffe5caca7e10e4e61c3624eaa0941cd00260801c5b601082161561397c576fffcb9843d60f6159c9db58835c9266440260801c5b602082161561399b576fff973b41fa98c081472e6896dfb254c00260801c5b60408216156139ba576fff2ea16466c96a3843ec78b326b528610260801c5b60808216156139d9576ffe5dee046a99a2a811c461f1969c30530260801c5b6101008216156139f9576ffcbe86c7900a88aedcffc83b479aa3a40260801c5b610200821615613a19576ff987a7253ac413176f2b074cf7815e540260801c5b610400821615613a39576ff3392b0822b70005940c7a398e4b70f30260801c5b610800821615613a59576fe7159475a2c29b7443b29c7fa6e889d90260801c5b611000821615613a79576fd097f3bdfd2022b8845ad8f792aa58250260801c5b612000821615613a99576fa9f746462d870fdf8a65dc1f90e061e50260801c5b614000821615613ab9576f70d869a156d2a1b890bb3df62baf32f70260801c5b618000821615613ad9576f31be135f97d08fd981231505542fcfa60260801c5b62010000821615613afa576f09aa508b5b7a84e1c677de54f3e99bc90260801c5b62020000821615613b1a576e5d6af8dedb81196699c329225ee6040260801c5b62040000821615613b39576d2216e584f5fa1ea926041bedfe980260801c5b62080000821615613b56576b048a170391f7dc42444e8fa20260801c5b60008460020b1315613b71578060001981613b6d57fe5b0490505b640100000000810615613b85576001613b88565b60005b60ff16602082901c0192505050919050565b600080600083613bab578585613bae565b84865b909250905061214d87613bc9620f424062ffffff8616612a55565b6134f2620f424062ffffff8616612a55565b6000613be8848484612ab2565b905060008280613bf457fe5b8486091115611bd0576000198110613c0b57600080fd5b6001019392505050565b600054610100900460ff1680613c2e5750613c2e612856565b80613c3c575060005460ff16155b613c775760405162461bcd60e51b815260040180806020018281038252602e8152602001806149f3602e913960400191505060405180910390fd5b600054610100900460ff161580156128fc576000805460ff1961ff001990911661010017166001179055801561290e576000805461ff001916905550565b604051806040016040528060008152602001600081525090565b6040518061014001604052806000815260200160008152602001600081526020016000815260200160008152602001600081526020016000815260200160008152602001600060020b81526020016000151581525090565b6040518060e00160405280600081526020016000815260200160008152602001600081526020016000815260200160008152602001600060020b81525090565b803561041f81614962565b600082601f830112613d82578081fd5b81516020613d97613d9283614945565b614922565b8281528181019085830183850287018401881015613db3578586fd5b855b85811015613dda578151613dc881614962565b84529284019290840190600101613db5565b5090979650505050505050565b803561041f81614977565b8051600281900b811461041f57600080fd5b805161ffff8116811461041f57600080fd5b600060208284031215613e27578081fd5b81356113f081614962565b600060208284031215613e43578081fd5b81516113f081614962565b60008060408385031215613e60578081fd5b8235613e6b81614962565b91506020830135613e7b81614962565b809150509250929050565b600080600060608486031215613e9a578081fd5b8335613ea581614962565b92506020840135613eb581614962565b91506040840135613ec581614962565b809150509250925092565b60008060408385031215613ee2578182fd5b8235613eed81614962565b91506020830135613e7b81614985565b60008060408385031215613f0f578182fd5b8235613f1a81614962565b91506020830135613e7b81614996565b60006020808385031215613f3c578182fd5b82516001600160401b03811115613f51578283fd5b8301601f81018513613f61578283fd5b8051613f6f613d9282614945565b8181528381019083850185840285018601891015613f8b578687fd5b8694505b83851015613fb6578051613fa281614962565b835260019490940193918501918501613f8f565b50979650505050505050565b60008060408385031215613fd4578182fd5b82516001600160401b0380821115613fea578384fd5b818501915085601f830112613ffd578384fd5b8151602061400d613d9283614945565b82815281810190858301838502870184018b1015614029578889fd5b8896505b848710156140595780518060060b811461404557898afd5b83526001969096019591830191830161402d565b5091880151919650909350505080821115614072578283fd5b5061407f85828601613d72565b9150509250929050565b60006020828403121561409a578081fd5b81516113f081614977565b6000602082840312156140b6578081fd5b5051919050565b600080604083850312156140cf578182fd5b505080516020909101519092909150565b600080600080606085870312156140f5578182fd5b843593506020850135925060408501356001600160401b0380821115614119578384fd5b818701915087601f83011261412c578384fd5b81358181111561413a578485fd5b88602082850101111561414b578485fd5b95989497505060200194505050565b60006060828403121561416b578081fd5b604051606081018181106001600160401b038211171561418757fe5b80604052508251815260208301516020820152604083015160408201528091505092915050565b6000608082840312156141bf578081fd5b604051608081018181106001600160401b03821117156141db57fe5b60405282516141e981614962565b815260208301516141f981614985565b6020820152604083015161420c81614985565b6040820152606083015161421f81614985565b60608201529392505050565b60006080828403121561423c578081fd5b604051608081018181106001600160401b038211171561425857fe5b604052823561426681614962565b8152602083013561427681614962565b6020820152604083810135908201526060928301359281019290925250919050565b6000606082840312156142a9578081fd5b604051606081018181106001600160401b03821117156142c557fe5b6040526142d183613df2565b815260208301516020820152604083015160408201528091505092915050565b600060e08284031215614302578081fd5b60405160e081018181106001600160401b038211171561431e57fe5b60405261432a83613d67565b815261433860208401613d67565b602082015261434960408401613de7565b604082015261435a60608401613de7565b606082015261436b60808401613de7565b608082015260a083013560a082015261438660c08401613d67565b60c08201529392505050565b600080600080600080600060e0888a0312156143ac578485fd5b87516143b781614962565b96506143c560208901613df2565b95506143d360408901613e04565b94506143e160608901613e04565b93506143ef60808901613e04565b925060a088015160ff81168114614404578283fd5b60c089015190925061441581614977565b8091505092959891949750929550565b600060208284031215614436578081fd5b81516113f081614985565b600060208284031215614452578081fd5b81516113f081614996565b15159052565b60020b9052565b80518252602090810151910152565b62ffffff169052565b6001600160a01b0391909116815260200190565b6001600160a01b0392831681529116602082015260400190565b6001600160a01b0384811682528316602082015260808101612255604083018461446a565b600060018060a01b038088168352602087151581850152866040850152818616606085015260a06080850152845191508160a0850152825b828110156145295785810182015185820160c00152810161450d565b8281111561453a578360c084870101525b5050601f01601f19169190910160c0019695505050505050565b6020808252825182820181905260009190848201906040850190845b8181101561459257835163ffffffff1683529284019291840191600101614570565b50909695505050505050565b901515815260200190565b90815260200190565b60008582528460208301526060604083015282606083015282846080840137818301608090810191909152601f909201601f191601019392505050565b82815260608101611bd0602083018461446a565b60208082526007908201526645585f42544e4560c81b604082015260600190565b6020808252600790820152660869088be9e86960cb1b604082015260600190565b60208082526008908201526745585f4f504c415360c01b604082015260600190565b6020808252600590820152640455f4142360dc1b604082015260600190565b602080825260069082015265455f4f424e4360d01b604082015260600190565b6020808252600a908201526922ac2fa6aa21a627a7a960b11b604082015260600190565b6020808252600790820152662aa1a12fa321ab60c91b604082015260600190565b6020808252601c908201527f506572704d6174683a20696e76657273696f6e206f766572666c6f7700000000604082015260600190565b602080825260069082015265455f43484e4360d01b604082015260600190565b60208082526006908201526555425f554f4160d01b604082015260600190565b602080825260069082015265045585f4d49560d41b604082015260600190565b60208082526006908201526545585f424e4360d01b604082015260600190565b60006101208201905060018060a01b03808451168352602084015115156020840152604084015115156040840152606084015160608401528060808501511660808401525060a08301516147f960a0840182614479565b5060c083015161480c60c0840182614479565b5060e083015161481f60e084018261446a565b5092915050565b81516001600160a01b0390811682526020808401518216908301526040808401519091169082015260608083015162ffffff16908201526080918201519181019190915260a00190565b600061014082019050825182526020830151602083015260408301516040830152606083015160608301526080830151608083015260a083015160a083015260c083015160c083015260e083015160e0830152610100808401516148d682850182614463565b5050610120808401516148eb8285018261445d565b505092915050565b62ffffff91909116815260200190565b918252602082015260400190565b63ffffffff91909116815260200190565b6040518181016001600160401b038111828210171561493d57fe5b604052919050565b60006001600160401b0382111561495857fe5b5060209081020190565b6001600160a01b038116811461290e57600080fd5b801515811461290e57600080fd5b62ffffff8116811461290e57600080fd5b63ffffffff8116811461290e57600080fdfe5369676e6564536166654d6174683a206164646974696f6e206f766572666c6f7753616665436173743a2076616c756520646f65736e27742066697420696e20616e2032342062697473496e697469616c697a61626c653a20636f6e747261637420697320616c726561647920696e697469616c697a65645369676e6564536166654d6174683a206469766973696f6e206f766572666c6f778be0079c531659141344cd1fd0a4f28419497f9722a3daafe3b4186f6b6457e05369676e6564536166654d6174683a206d756c7469706c69636174696f6e206f766572666c6f7753616665436173743a2076616c756520646f65736e27742066697420696e203332206269747353616665436173743a2076616c756520646f65736e27742066697420696e20616e20696e743235365369676e6564536166654d6174683a207375627472616374696f6e206f766572666c6f77a26469706673582212204e808d855c49881365acf0bae9aa2ee7bcd959e34d51be7b9ea314073ef779e764736f6c63430007060033",
  "linkReferences": {},
  "deployedLinkReferences": {}
}