{
  "_format": "hh-sol-artifact-1",
  "contractName": "ClearingHouse",
  "sourceName": "contracts/ClearingHouse.sol",
  "abi": [
    {
      "anonymous": false,
      "inputs": [
        {
          "indexed": true,
          "internalType": "address",
          "name": "delegateApproval",
          "type": "address"
        }
      ],
      "name": "DelegateApprovalChanged",
      "type": "event"
    },
    {
      "anonymous": false,
      "inputs": [
        {
          "indexed": true,
          "internalType": "address",
          "name": "trader",
          "type": "address"
        },
        {
          "indexed": true,
          "internalType": "address",
          "name": "baseToken",
          "type": "address"
        },
        {
          "indexed": false,
          "internalType": "int256",
          "name": "fundingPayment",
          "type": "int256"
        }
      ],
      "name": "FundingPaymentSettled",
      "type": "event"
    },
    {
      "anonymous": false,
      "inputs": [
        {
          "indexed": true,
          "internalType": "address",
          "name": "maker",
          "type": "address"
        },
        {
          "indexed": true,
          "internalType": "address",
          "name": "baseToken",
          "type": "address"
        },
        {
          "indexed": true,
          "internalType": "address",
          "name": "quoteToken",
          "type": "address"
        },
        {
          "indexed": false,
          "internalType": "int24",
          "name": "lowerTick",
          "type": "int24"
        },
        {
          "indexed": false,
          "internalType": "int24",
          "name": "upperTick",
          "type": "int24"
        },
        {
          "indexed": false,
          "internalType": "int256",
          "name": "base",
          "type": "int256"
        },
        {
          "indexed": false,
          "internalType": "int256",
          "name": "quote",
          "type": "int256"
        },
        {
          "indexed": false,
          "internalType": "int128",
          "name": "liquidity",
          "type": "int128"
        },
        {
          "indexed": false,
          "internalType": "uint256",
          "name": "quoteFee",
          "type": "uint256"
        }
      ],
      "name": "LiquidityChanged",
      "type": "event"
    },
    {
      "anonymous": false,
      "inputs": [
        {
          "indexed": true,
          "internalType": "address",
          "name": "previousOwner",
          "type": "address"
        },
        {
          "indexed": true,
          "internalType": "address",
          "name": "newOwner",
          "type": "address"
        }
      ],
      "name": "OwnershipTransferred",
      "type": "event"
    },
    {
      "anonymous": false,
      "inputs": [
        {
          "indexed": false,
          "internalType": "address",
          "name": "account",
          "type": "address"
        }
      ],
      "name": "Paused",
      "type": "event"
    },
    {
      "anonymous": false,
      "inputs": [
        {
          "indexed": true,
          "internalType": "address",
          "name": "trader",
          "type": "address"
        },
        {
          "indexed": true,
          "internalType": "address",
          "name": "baseToken",
          "type": "address"
        },
        {
          "indexed": false,
          "internalType": "int256",
          "name": "exchangedPositionSize",
          "type": "int256"
        },
        {
          "indexed": false,
          "internalType": "int256",
          "name": "exchangedPositionNotional",
          "type": "int256"
        },
        {
          "indexed": false,
          "internalType": "uint256",
          "name": "fee",
          "type": "uint256"
        },
        {
          "indexed": false,
          "internalType": "int256",
          "name": "openNotional",
          "type": "int256"
        },
        {
          "indexed": false,
          "internalType": "int256",
          "name": "realizedPnl",
          "type": "int256"
        },
        {
          "indexed": false,
          "internalType": "uint256",
          "name": "sqrtPriceAfterX96",
          "type": "uint256"
        }
      ],
      "name": "PositionChanged",
      "type": "event"
    },
    {
      "anonymous": false,
      "inputs": [
        {
          "indexed": true,
          "internalType": "address",
          "name": "trader",
          "type": "address"
        },
        {
          "indexed": true,
          "internalType": "address",
          "name": "baseToken",
          "type": "address"
        },
        {
          "indexed": false,
          "internalType": "int256",
          "name": "closedPositionSize",
          "type": "int256"
        },
        {
          "indexed": false,
          "internalType": "int256",
          "name": "closedPositionNotional",
          "type": "int256"
        },
        {
          "indexed": false,
          "internalType": "int256",
          "name": "openNotional",
          "type": "int256"
        },
        {
          "indexed": false,
          "internalType": "int256",
          "name": "realizedPnl",
          "type": "int256"
        },
        {
          "indexed": false,
          "internalType": "uint256",
          "name": "closedPrice",
          "type": "uint256"
        }
      ],
      "name": "PositionClosed",
      "type": "event"
    },
    {
      "anonymous": false,
      "inputs": [
        {
          "indexed": true,
          "internalType": "address",
          "name": "trader",
          "type": "address"
        },
        {
          "indexed": true,
          "internalType": "address",
          "name": "baseToken",
          "type": "address"
        },
        {
          "indexed": false,
          "internalType": "uint256",
          "name": "positionNotional",
          "type": "uint256"
        },
        {
          "indexed": false,
          "internalType": "uint256",
          "name": "positionSize",
          "type": "uint256"
        },
        {
          "indexed": false,
          "internalType": "uint256",
          "name": "liquidationFee",
          "type": "uint256"
        },
        {
          "indexed": false,
          "internalType": "address",
          "name": "liquidator",
          "type": "address"
        }
      ],
      "name": "PositionLiquidated",
      "type": "event"
    },
    {
      "anonymous": false,
      "inputs": [
        {
          "indexed": true,
          "internalType": "bytes32",
          "name": "referralCode",
          "type": "bytes32"
        }
      ],
      "name": "ReferredPositionChanged",
      "type": "event"
    },
    {
      "anonymous": false,
      "inputs": [
        {
          "indexed": true,
          "internalType": "address",
          "name": "forwarder",
          "type": "address"
        }
      ],
      "name": "TrustedForwarderChanged",
      "type": "event"
    },
    {
      "anonymous": false,
      "inputs": [
        {
          "indexed": false,
          "internalType": "address",
          "name": "trustedForwarder",
          "type": "address"
        }
      ],
      "name": "TrustedForwarderUpdated",
      "type": "event"
    },
    {
      "anonymous": false,
      "inputs": [
        {
          "indexed": false,
          "internalType": "address",
          "name": "account",
          "type": "address"
        }
      ],
      "name": "Unpaused",
      "type": "event"
    },
    {
      "inputs": [
        {
          "components": [
            {
              "internalType": "address",
              "name": "baseToken",
              "type": "address"
            },
            {
              "internalType": "uint256",
              "name": "base",
              "type": "uint256"
            },
            {
              "internalType": "uint256",
              "name": "quote",
              "type": "uint256"
            },
            {
              "internalType": "int24",
              "name": "lowerTick",
              "type": "int24"
            },
            {
              "internalType": "int24",
              "name": "upperTick",
              "type": "int24"
            },
            {
              "internalType": "uint256",
              "name": "minBase",
              "type": "uint256"
            },
            {
              "internalType": "uint256",
              "name": "minQuote",
              "type": "uint256"
            },
            {
              "internalType": "bool",
              "name": "useTakerBalance",
              "type": "bool"
            },
            {
              "internalType": "uint256",
              "name": "deadline",
              "type": "uint256"
            }
          ],
          "internalType": "struct IClearingHouse.AddLiquidityParams",
          "name": "params",
          "type": "tuple"
        }
      ],
      "name": "addLiquidity",
      "outputs": [
        {
          "components": [
            {
              "internalType": "uint256",
              "name": "base",
              "type": "uint256"
            },
            {
              "internalType": "uint256",
              "name": "quote",
              "type": "uint256"
            },
            {
              "internalType": "uint256",
              "name": "fee",
              "type": "uint256"
            },
            {
              "internalType": "uint256",
              "name": "liquidity",
              "type": "uint256"
            }
          ],
          "internalType": "struct IClearingHouse.AddLiquidityResponse",
          "name": "",
          "type": "tuple"
        }
      ],
      "stateMutability": "nonpayable",
      "type": "function"
    },
    {
      "inputs": [
        {
          "internalType": "address",
          "name": "maker",
          "type": "address"
        },
        {
          "internalType": "address",
          "name": "baseToken",
          "type": "address"
        }
      ],
      "name": "cancelAllExcessOrders",
      "outputs": [],
      "stateMutability": "nonpayable",
      "type": "function"
    },
    {
      "inputs": [
        {
          "internalType": "address",
          "name": "maker",
          "type": "address"
        },
        {
          "internalType": "address",
          "name": "baseToken",
          "type": "address"
        },
        {
          "internalType": "bytes32[]",
          "name": "orderIds",
          "type": "bytes32[]"
        }
      ],
      "name": "cancelExcessOrders",
      "outputs": [],
      "stateMutability": "nonpayable",
      "type": "function"
    },
    {
      "inputs": [],
      "name": "candidate",
      "outputs": [
        {
          "internalType": "address",
          "name": "",
          "type": "address"
        }
      ],
      "stateMutability": "view",
      "type": "function"
    },
    {
      "inputs": [
        {
          "components": [
            {
              "internalType": "address",
              "name": "baseToken",
              "type": "address"
            },
            {
              "internalType": "uint160",
              "name": "sqrtPriceLimitX96",
              "type": "uint160"
            },
            {
              "internalType": "uint256",
              "name": "oppositeAmountBound",
              "type": "uint256"
            },
            {
              "internalType": "uint256",
              "name": "deadline",
              "type": "uint256"
            },
            {
              "internalType": "bytes32",
              "name": "referralCode",
              "type": "bytes32"
            }
          ],
          "internalType": "struct IClearingHouse.ClosePositionParams",
          "name": "params",
          "type": "tuple"
        }
      ],
      "name": "closePosition",
      "outputs": [
        {
          "internalType": "uint256",
          "name": "base",
          "type": "uint256"
        },
        {
          "internalType": "uint256",
          "name": "quote",
          "type": "uint256"
        }
      ],
      "stateMutability": "nonpayable",
      "type": "function"
    },
    {
      "inputs": [],
      "name": "getAccountBalance",
      "outputs": [
        {
          "internalType": "address",
          "name": "",
          "type": "address"
        }
      ],
      "stateMutability": "view",
      "type": "function"
    },
    {
      "inputs": [
        {
          "internalType": "address",
          "name": "trader",
          "type": "address"
        }
      ],
      "name": "getAccountValue",
      "outputs": [
        {
          "internalType": "int256",
          "name": "",
          "type": "int256"
        }
      ],
      "stateMutability": "view",
      "type": "function"
    },
    {
      "inputs": [],
      "name": "getClearingHouseConfig",
      "outputs": [
        {
          "internalType": "address",
          "name": "",
          "type": "address"
        }
      ],
      "stateMutability": "view",
      "type": "function"
    },
    {
      "inputs": [],
      "name": "getDelegateApproval",
      "outputs": [
        {
          "internalType": "address",
          "name": "",
          "type": "address"
        }
      ],
      "stateMutability": "view",
      "type": "function"
    },
    {
      "inputs": [],
      "name": "getExchange",
      "outputs": [
        {
          "internalType": "address",
          "name": "",
          "type": "address"
        }
      ],
      "stateMutability": "view",
      "type": "function"
    },
    {
      "inputs": [],
      "name": "getInsuranceFund",
      "outputs": [
        {
          "internalType": "address",
          "name": "",
          "type": "address"
        }
      ],
      "stateMutability": "view",
      "type": "function"
    },
    {
      "inputs": [],
      "name": "getOrderBook",
      "outputs": [
        {
          "internalType": "address",
          "name": "",
          "type": "address"
        }
      ],
      "stateMutability": "view",
      "type": "function"
    },
    {
      "inputs": [],
      "name": "getQuoteToken",
      "outputs": [
        {
          "internalType": "address",
          "name": "",
          "type": "address"
        }
      ],
      "stateMutability": "view",
      "type": "function"
    },
    {
      "inputs": [],
      "name": "getTrustedForwarder",
      "outputs": [
        {
          "internalType": "address",
          "name": "",
          "type": "address"
        }
      ],
      "stateMutability": "view",
      "type": "function"
    },
    {
      "inputs": [],
      "name": "getUniswapV3Factory",
      "outputs": [
        {
          "internalType": "address",
          "name": "",
          "type": "address"
        }
      ],
      "stateMutability": "view",
      "type": "function"
    },
    {
      "inputs": [],
      "name": "getVault",
      "outputs": [
        {
          "internalType": "address",
          "name": "",
          "type": "address"
        }
      ],
      "stateMutability": "view",
      "type": "function"
    },
    {
      "inputs": [
        {
          "internalType": "address",
          "name": "clearingHouseConfigArg",
          "type": "address"
        },
        {
          "internalType": "address",
          "name": "vaultArg",
          "type": "address"
        },
        {
          "internalType": "address",
          "name": "quoteTokenArg",
          "type": "address"
        },
        {
          "internalType": "address",
          "name": "uniV3FactoryArg",
          "type": "address"
        },
        {
          "internalType": "address",
          "name": "exchangeArg",
          "type": "address"
        },
        {
          "internalType": "address",
          "name": "accountBalanceArg",
          "type": "address"
        },
        {
          "internalType": "address",
          "name": "insuranceFundArg",
          "type": "address"
        }
      ],
      "name": "initialize",
      "outputs": [],
      "stateMutability": "nonpayable",
      "type": "function"
    },
    {
      "inputs": [
        {
          "internalType": "address",
          "name": "forwarder",
          "type": "address"
        }
      ],
      "name": "isTrustedForwarder",
      "outputs": [
        {
          "internalType": "bool",
          "name": "",
          "type": "bool"
        }
      ],
      "stateMutability": "view",
      "type": "function"
    },
    {
      "inputs": [
        {
          "internalType": "address",
          "name": "trader",
          "type": "address"
        },
        {
          "internalType": "address",
          "name": "baseToken",
          "type": "address"
        },
        {
          "internalType": "int256",
          "name": "positionSize",
          "type": "int256"
        }
      ],
      "name": "liquidate",
      "outputs": [],
      "stateMutability": "nonpayable",
      "type": "function"
    },
    {
      "inputs": [
        {
          "internalType": "address",
          "name": "trader",
          "type": "address"
        },
        {
          "internalType": "address",
          "name": "baseToken",
          "type": "address"
        }
      ],
      "name": "liquidate",
      "outputs": [],
      "stateMutability": "nonpayable",
      "type": "function"
    },
    {
      "inputs": [
        {
          "components": [
            {
              "internalType": "address",
              "name": "baseToken",
              "type": "address"
            },
            {
              "internalType": "bool",
              "name": "isBaseToQuote",
              "type": "bool"
            },
            {
              "internalType": "bool",
              "name": "isExactInput",
              "type": "bool"
            },
            {
              "internalType": "uint256",
              "name": "amount",
              "type": "uint256"
            },
            {
              "internalType": "uint256",
              "name": "oppositeAmountBound",
              "type": "uint256"
            },
            {
              "internalType": "uint256",
              "name": "deadline",
              "type": "uint256"
            },
            {
              "internalType": "uint160",
              "name": "sqrtPriceLimitX96",
              "type": "uint160"
            },
            {
              "internalType": "bytes32",
              "name": "referralCode",
              "type": "bytes32"
            }
          ],
          "internalType": "struct IClearingHouse.OpenPositionParams",
          "name": "params",
          "type": "tuple"
        }
      ],
      "name": "openPosition",
      "outputs": [
        {
          "internalType": "uint256",
          "name": "base",
          "type": "uint256"
        },
        {
          "internalType": "uint256",
          "name": "quote",
          "type": "uint256"
        }
      ],
      "stateMutability": "nonpayable",
      "type": "function"
    },
    {
      "inputs": [
        {
          "internalType": "address",
          "name": "trader",
          "type": "address"
        },
        {
          "components": [
            {
              "internalType": "address",
              "name": "baseToken",
              "type": "address"
            },
            {
              "internalType": "bool",
              "name": "isBaseToQuote",
              "type": "bool"
            },
            {
              "internalType": "bool",
              "name": "isExactInput",
              "type": "bool"
            },
            {
              "internalType": "uint256",
              "name": "amount",
              "type": "uint256"
            },
            {
              "internalType": "uint256",
              "name": "oppositeAmountBound",
              "type": "uint256"
            },
            {
              "internalType": "uint256",
              "name": "deadline",
              "type": "uint256"
            },
            {
              "internalType": "uint160",
              "name": "sqrtPriceLimitX96",
              "type": "uint160"
            },
            {
              "internalType": "bytes32",
              "name": "referralCode",
              "type": "bytes32"
            }
          ],
          "internalType": "struct IClearingHouse.OpenPositionParams",
          "name": "params",
          "type": "tuple"
        }
      ],
      "name": "openPositionFor",
      "outputs": [
        {
          "internalType": "uint256",
          "name": "base",
          "type": "uint256"
        },
        {
          "internalType": "uint256",
          "name": "quote",
          "type": "uint256"
        },
        {
          "internalType": "uint256",
          "name": "fee",
          "type": "uint256"
        }
      ],
      "stateMutability": "nonpayable",
      "type": "function"
    },
    {
      "inputs": [],
      "name": "owner",
      "outputs": [
        {
          "internalType": "address",
          "name": "",
          "type": "address"
        }
      ],
      "stateMutability": "view",
      "type": "function"
    },
    {
      "inputs": [],
      "name": "pause",
      "outputs": [],
      "stateMutability": "nonpayable",
      "type": "function"
    },
    {
      "inputs": [],
      "name": "paused",
      "outputs": [
        {
          "internalType": "bool",
          "name": "",
          "type": "bool"
        }
      ],
      "stateMutability": "view",
      "type": "function"
    },
    {
      "inputs": [
        {
          "internalType": "address",
          "name": "trader",
          "type": "address"
        },
        {
          "internalType": "address",
          "name": "baseToken",
          "type": "address"
        }
      ],
      "name": "quitMarket",
      "outputs": [
        {
          "internalType": "uint256",
          "name": "base",
          "type": "uint256"
        },
        {
          "internalType": "uint256",
          "name": "quote",
          "type": "uint256"
        }
      ],
      "stateMutability": "nonpayable",
      "type": "function"
    },
    {
      "inputs": [
        {
          "components": [
            {
              "internalType": "address",
              "name": "baseToken",
              "type": "address"
            },
            {
              "internalType": "int24",
              "name": "lowerTick",
              "type": "int24"
            },
            {
              "internalType": "int24",
              "name": "upperTick",
              "type": "int24"
            },
            {
              "internalType": "uint128",
              "name": "liquidity",
              "type": "uint128"
            },
            {
              "internalType": "uint256",
              "name": "minBase",
              "type": "uint256"
            },
            {
              "internalType": "uint256",
              "name": "minQuote",
              "type": "uint256"
            },
            {
              "internalType": "uint256",
              "name": "deadline",
              "type": "uint256"
            }
          ],
          "internalType": "struct IClearingHouse.RemoveLiquidityParams",
          "name": "params",
          "type": "tuple"
        }
      ],
      "name": "removeLiquidity",
      "outputs": [
        {
          "components": [
            {
              "internalType": "uint256",
              "name": "base",
              "type": "uint256"
            },
            {
              "internalType": "uint256",
              "name": "quote",
              "type": "uint256"
            },
            {
              "internalType": "uint256",
              "name": "fee",
              "type": "uint256"
            }
          ],
          "internalType": "struct IClearingHouse.RemoveLiquidityResponse",
          "name": "",
          "type": "tuple"
        }
      ],
      "stateMutability": "nonpayable",
      "type": "function"
    },
    {
      "inputs": [],
      "name": "renounceOwnership",
      "outputs": [],
      "stateMutability": "nonpayable",
      "type": "function"
    },
    {
      "inputs": [
        {
          "internalType": "address",
          "name": "delegateApprovalArg",
          "type": "address"
        }
      ],
      "name": "setDelegateApproval",
      "outputs": [],
      "stateMutability": "nonpayable",
      "type": "function"
    },
    {
      "inputs": [
        {
          "internalType": "address",
          "name": "newOwner",
          "type": "address"
        }
      ],
      "name": "setOwner",
      "outputs": [],
      "stateMutability": "nonpayable",
      "type": "function"
    },
    {
      "inputs": [
        {
          "internalType": "address",
          "name": "trader",
          "type": "address"
        }
      ],
      "name": "settleAllFunding",
      "outputs": [],
      "stateMutability": "nonpayable",
      "type": "function"
    },
    {
      "inputs": [
        {
          "internalType": "uint256",
          "name": "amount0Owed",
          "type": "uint256"
        },
        {
          "internalType": "uint256",
          "name": "amount1Owed",
          "type": "uint256"
        },
        {
          "internalType": "bytes",
          "name": "data",
          "type": "bytes"
        }
      ],
      "name": "uniswapV3MintCallback",
      "outputs": [],
      "stateMutability": "nonpayable",
      "type": "function"
    },
    {
      "inputs": [
        {
          "internalType": "int256",
          "name": "amount0Delta",
          "type": "int256"
        },
        {
          "internalType": "int256",
          "name": "amount1Delta",
          "type": "int256"
        },
        {
          "internalType": "bytes",
          "name": "data",
          "type": "bytes"
        }
      ],
      "name": "uniswapV3SwapCallback",
      "outputs": [],
      "stateMutability": "nonpayable",
      "type": "function"
    },
    {
      "inputs": [],
      "name": "unpause",
      "outputs": [],
      "stateMutability": "nonpayable",
      "type": "function"
    },
    {
      "inputs": [],
      "name": "updateOwner",
      "outputs": [],
      "stateMutability": "nonpayable",
      "type": "function"
    },
    {
      "inputs": [],
      "name": "versionRecipient",
      "outputs": [
        {
          "internalType": "string",
          "name": "",
          "type": "string"
        }
      ],
      "stateMutability": "pure",
      "type": "function"
    }
  ],
  "bytecode": "0x608060405234801561001057600080fd5b50615fd180620000216000396000f3fe608060405234801561001057600080fd5b50600436106101da5760003560e01c806386b9d81f11610105578063c35eb28c1161009d578063c35eb28c1461038c578063cc3606dc146103ac578063cde109b6146103bf578063ce1b815f146103df578063d3487997146103e7578063e95c9741146103fa578063eb9b912e1461040d578063f807cd2214610420578063fa461e3314610428576101da565b806386b9d81f1461032e5780638d928af8146103415780638da5cb5b1461034957806392a25daf14610351578063aa2a829414610359578063b081983b14610361578063b248c4ef14610369578063b6b1b6c314610371578063bc5920ba14610384576101da565b8063572b6c0511610178578063572b6c05146102a05780635ae80951146102c05780635c975abb146102e057806365d461bd146102e85780636896fabf146102fb5780636c8381f814610303578063715018a61461030b57806380a98332146103135780638456cb5914610326576101da565b8062aa9a89146101df578062c2473e1461020957806313af40351461022b578063158626f71461024057806315beff131461025557806335876476146102685780633f4ba83a1461027b578063486ff0cd146102835780634a64d67d14610298575b600080fd5b6101f26101ed3660046151fb565b61043b565b604051610200929190615d76565b60405180910390f35b61021c610217366004614eb2565b61065b565b60405161020093929190615693565b61023e610239366004614cdf565b6107e5565b005b610248610940565b6040516102009190615578565b61023e610263366004614cdf565b610951565b61023e610276366004614d4f565b610a27565b61023e610e40565b61028b610ea7565b6040516102009190615727565b610248610ec6565b6102b36102ae366004614cdf565b610ed6565b604051610200919061567f565b6102d36102ce366004614cdf565b610eed565b604051610200919061568a565b6102b3610f91565b61023e6102f6366004614e72565b610f9a565b610248611046565b610248611056565b61023e611065565b61023e610321366004614de4565b611106565b61023e6111e9565b61023e61033c366004614d17565b61124e565b6102486112fa565b61024861130a565b610248611319565b610248611329565b610248611339565b610248611349565b6101f261037f36600461534a565b611359565b61023e611441565b61039f61039a36600461517f565b61152d565b6040516102009190615c3d565b61023e6103ba366004614d17565b611c27565b6103d26103cd366004615366565b611cd3565b6040516102009190615cf8565b610248611fd5565b61023e6103f5366004615097565b611fe4565b6101f2610408366004614d17565b612146565b61023e61041b366004614cdf565b612339565b610248612459565b61023e610436366004615097565b612469565b600080610446610f91565b1561048b576040805162461bcd60e51b815260206004820152601060248201526f14185d5cd8589b194e881c185d5cd95960821b604482015290519081900360640190fd5b600260015414156104d1576040805162461bcd60e51b815260206004820152601f6024820152600080516020615e52833981519152604482015290519081900360640190fd5b60026001556060830135806104e46125f3565b111561050b5760405162461bcd60e51b815260040161050290615a22565b60405180910390fd5b61052061051b6020860186614cdf565b6125f7565b600061052a612687565b90506105428161053d6020880188614cdf565b612696565b50600061055b826105566020890189614cdf565b6127f5565b6040805160e081019091526001600160a01b03841681529091506000808313916105e690602080820190610591908c018c614cdf565b6001600160a01b03168152841515602082018190526040820152600160608201526080016105be86612828565b81526020018a60200160208101906105d69190614cdf565b6001600160a01b03169052612851565b90506106346040518060a0016040528084151581526020018415158152602001836000015181526020018360200151815260200161062d8b60400135856101200151612aff565b9052612b92565b6106418860800135612c65565b805160209091015160018055909890975095505050505050565b6000806000610668610f91565b156106ad576040805162461bcd60e51b815260206004820152601060248201526f14185d5cd8589b194e881c185d5cd95960821b604482015290519081900360640190fd5b600260015414156106f3576040805162461bcd60e51b815260206004820152601f6024820152600080516020615e52833981519152604482015290519081900360640190fd5b600260015560a0840151806107066125f3565b11156107245760405162461bcd60e51b815260040161050290615a22565b610138546001600160a01b031663a08012a38761073f612687565b6040518363ffffffff1660e01b815260040161075c92919061558c565b60206040518083038186803b15801561077457600080fd5b505afa158015610788573d6000803e3d6000fd5b505050506040513d601f19601f820116820180604052508101906107ac9190615024565b6107c85760405162461bcd60e51b815260040161050290615988565b6107d28686612c99565b6001805591989097509095509350505050565b6107ed612687565b6001600160a01b03166107fe61130a565b6001600160a01b031614610842576040805162461bcd60e51b8152602060048201526006602482015265534f5f434e4f60d01b604482015290519081900360640190fd5b6001600160a01b038116610886576040805162461bcd60e51b81526020600482015260066024820152650534f5f4e57360d41b604482015290519081900360640190fd5b6065546001600160a01b03828116911614156108d2576040805162461bcd60e51b8152602060048201526006602482015265534f5f53414f60d01b604482015290519081900360640190fd5b6066546001600160a01b038281169116141561091e576040805162461bcd60e51b8152602060048201526006602482015265534f5f53414360d01b604482015290519081900360640190fd5b606680546001600160a01b0319166001600160a01b0392909216919091179055565b610137546001600160a01b03165b90565b610959612687565b6001600160a01b031661096a61130a565b6001600160a01b0316146109ae576040805162461bcd60e51b8152602060048201526006602482015265534f5f434e4f60d01b604482015290519081900360640190fd5b6109c0816001600160a01b0316612dab565b6109dc5760405162461bcd60e51b815260040161050290615b2d565b61013880546001600160a01b0319166001600160a01b0383169081179091556040517fc2a094a533bc4ad86b9c50f1641576f0e8ee311d765abfd05a8b2383c750689190600090a250565b600054610100900460ff1680610a405750610a40612db1565b80610a4e575060005460ff16155b610a895760405162461bcd60e51b815260040180806020018281038252602e815260200180615eba602e913960400191505060405180910390fd5b600054610100900460ff16158015610ab4576000805460ff1961ff0019909116610100171660011790555b610add876040518060400160405280600781526020016643485f56414e4360c81b815250612dc2565b610b06866040518060400160405280600781526020016643485f51414e4360c81b815250612dc2565b856001600160a01b031663313ce5676040518163ffffffff1660e01b815260040160206040518083038186803b158015610b3f57600080fd5b505afa158015610b53573d6000803e3d6000fd5b505050506040513d601f19601f82011682018060405250810190610b779190615557565b60ff16601214610b995760405162461bcd60e51b81526004016105029061579b565b610bc2856040518060400160405280600781526020016643485f55414e4360c81b815250612dc2565b610beb886040518060400160405280600781526020016643485f43434e4360c81b815250612dc2565b610c14836040518060400160405280600781526020016643485f41424e4360c81b815250612dc2565b610c3c846040518060400160405280600681526020016543485f454e4360d01b815250612dc2565b610c66826040518060400160405280600881526020016743485f4946414e4360c01b815250612dc2565b6000846001600160a01b031663b248c4ef6040518163ffffffff1660e01b815260040160206040518083038186803b158015610ca157600080fd5b505afa158015610cb5573d6000803e3d6000fd5b505050506040513d601f19601f82011682018060405250810190610cd99190614cfb565b9050610d04816040518060400160405280600781526020016643485f4f424e4360c81b815250612dc2565b610d0c612df8565b610d14612ea1565b61013280546001600160a01b03199081166001600160a01b038c811691909117909255610133805482168b84161790819055610130805483168b8516179055610131805483168a85161790556101348054831689851617905561013580548316858516179055610136805483168885161790556101378054909216868416179091556040805163313ce56760e01b81529051919092169163313ce567916004808301926020929190829003018186803b158015610dd057600080fd5b505afa158015610de4573d6000803e3d6000fd5b505050506040513d601f19601f82011682018060405250810190610e089190615557565b61013160146101000a81548160ff021916908360ff160217905550508015610e36576000805461ff00191690555b5050505050505050565b610e48612687565b6001600160a01b0316610e5961130a565b6001600160a01b031614610e9d576040805162461bcd60e51b8152602060048201526006602482015265534f5f434e4f60d01b604482015290519081900360640190fd5b610ea5612f3e565b565b6040805180820190915260058152640322e302e360dc1b602082015290565b610130546001600160a01b031690565b60fd546001600160a01b038281169116145b919050565b6101315461013354604051635ae8095160e01b8152600092610f8b92600160a01b90910460ff16916001600160a01b0390911690635ae8095190610f35908790600401615578565b60206040518083038186803b158015610f4d57600080fd5b505afa158015610f61573d6000803e3d6000fd5b505050506040513d601f19601f82011682018060405250810190610f85919061505c565b90612fde565b92915050565b60995460ff1690565b610fa2610f91565b15610fe7576040805162461bcd60e51b815260206004820152601060248201526f14185d5cd8589b194e881c185d5cd95960821b604482015290519081900360640190fd5b6002600154141561102d576040805162461bcd60e51b815260206004820152601f6024820152600080516020615e52833981519152604482015290519081900360640190fd5b600260015561103d838383612ff4565b50506001805550565b610136546001600160a01b031690565b6066546001600160a01b031690565b61106d612687565b6001600160a01b031661107e61130a565b6001600160a01b0316146110c2576040805162461bcd60e51b8152602060048201526006602482015265534f5f434e4f60d01b604482015290519081900360640190fd5b6065546040516000916001600160a01b031690600080516020615f09833981519152908390a3606580546001600160a01b0319908116909155606680549091169055565b61110e610f91565b15611153576040805162461bcd60e51b815260206004820152601060248201526f14185d5cd8589b194e881c185d5cd95960821b604482015290519081900360640190fd5b60026001541415611199576040805162461bcd60e51b815260206004820152601f6024820152600080516020615e52833981519152604482015290519081900360640190fd5b60026001819055506111df848484848080602002602001604051908101604052809392919081815260200183836020028082843760009201919091525061330f92505050565b5050600180555050565b6111f1612687565b6001600160a01b031661120261130a565b6001600160a01b031614611246576040805162461bcd60e51b8152602060048201526006602482015265534f5f434e4f60d01b604482015290519081900360640190fd5b610ea56133ba565b611256610f91565b1561129b576040805162461bcd60e51b815260206004820152601060248201526f14185d5cd8589b194e881c185d5cd95960821b604482015290519081900360640190fd5b600260015414156112e1576040805162461bcd60e51b815260206004820152601f6024820152600080516020615e52833981519152604482015290519081900360640190fd5b60026001556112f282826000612ff4565b505060018055565b610133546001600160a01b031690565b6065546001600160a01b031690565b610138546001600160a01b031690565b610132546001600160a01b031690565b610131546001600160a01b031690565b610135546001600160a01b031690565b600080611364610f91565b156113a9576040805162461bcd60e51b815260206004820152601060248201526f14185d5cd8589b194e881c185d5cd95960821b604482015290519081900360640190fd5b600260015414156113ef576040805162461bcd60e51b815260206004820152601f6024820152600080516020615e52833981519152604482015290519081900360640190fd5b600260015560a0830151806114026125f3565b11156114205760405162461bcd60e51b815260040161050290615a22565b61143161142b612687565b85612c99565b5060018055909590945092505050565b6066546001600160a01b0316611486576040805162461bcd60e51b81526020600482015260056024820152640534f5f43360dc1b604482015290519081900360640190fd5b61148e612687565b6066546001600160a01b039081169116146114d9576040805162461bcd60e51b8152602060048201526006602482015265534f5f434e4360d01b604482015290519081900360640190fd5b6066546065546040516001600160a01b039283169290911690600080516020615f0983398151915290600090a360668054606580546001600160a01b03199081166001600160a01b03841617909155169055565b611535614adb565b61153d610f91565b15611582576040805162461bcd60e51b815260206004820152601060248201526f14185d5cd8589b194e881c185d5cd95960821b604482015290519081900360640190fd5b600260015414156115c8576040805162461bcd60e51b815260206004820152601f6024820152600080516020615e52833981519152604482015290519081900360640190fd5b6002600155610100820135806115dc6125f3565b11156115fa5760405162461bcd60e51b815260040161050290615a22565b61160a61051b6020850185614cdf565b610134546001600160a01b031663ff8180116116296020860186614cdf565b6040518263ffffffff1660e01b81526004016116459190615578565b60206040518083038186803b15801561165d57600080fd5b505afa158015611671573d6000803e3d6000fd5b505050506040513d601f19601f820116820180604052508101906116959190615024565b156116b25760405162461bcd60e51b81526004016105029061577a565b6116c3610100840160e08501615008565b156116e05760405162461bcd60e51b815260040161050290615903565b60006116ea612687565b9050611702816116fd6020870187614cdf565b61343d565b60006117158261053d6020880188614cdf565b610135546040805160e081019091526001600160a01b0385811682529293506000929091169063e8ab2fb390602080820190611753908b018b614cdf565b6001600160a01b0316815260200189602001358152602001896040013581526020018960600160208101906117889190615040565b60020b81526020016117a060a08b0160808c01615040565b60020b8152602001858152506040518263ffffffff1660e01b81526004016117c89190615bcf565b608060405180830381600087803b1580156117e257600080fd5b505af11580156117f6573d6000803e3d6000fd5b505050506040513d601f19601f8201168201806040525081019061181a9190615197565b905061183881600001518760a0013583602001518960c0013561349e565b611849610100870160e08801615008565b15611b49578051602082015190151590151581141561187a5760405162461bcd60e51b815260040161050290615ae7565b610136546000906001600160a01b0316636332fef68661189d60208c018c614cdf565b6040518363ffffffff1660e01b81526004016118ba92919061558c565b60606040518083038186803b1580156118d257600080fd5b505afa1580156118e6573d6000803e3d6000fd5b505050506040513d601f19601f8201168201806040525081019061190a919061520c565b90506000808315611970578451611920906134ca565b835112156119405760405162461bcd60e51b815260040161050290615a62565b845161194b90613516565b8351602085015191935061196991611963908561352a565b906135d3565b90506119c8565b61197d85602001516134ca565b836020015112156119a05760405162461bcd60e51b815260040161050290615a83565b6119ad8560200151613516565b602084015184519192506119c591611963908461352a565b91505b610135546001600160a01b031663b0c04174611a16896119eb60208f018f614cdf565b8e60600160208101906119fe9190615040565b8f6080016020810190611a119190615040565b61368b565b84846040518463ffffffff1660e01b8152600401611a3693929190615693565b600060405180830381600087803b158015611a5057600080fd5b505af1158015611a64573d6000803e3d6000fd5b505061013654600092506001600160a01b03169050633c9b5ad189611a8c60208f018f614cdf565b86866040518563ffffffff1660e01b8152600401611aad94939291906155ca565b6040805180830381600087803b158015611ac657600080fd5b505af1158015611ada573d6000803e3d6000fd5b505050506040513d601f19601f82011682018060405250810190611afe9190615074565b915060009050611b19611b1460208e018e614cdf565b6136ec565b6001600160a01b03169050611b4289611b3560208f018f614cdf565b8686600087600088613770565b5050505050505b611b5f83611b5a83604001516134ca565b6137cf565b611b6883613802565b611bde83611b796020890189614cdf565b610130546001600160a01b0316611b9660808b0160608c01615040565b611ba660a08c0160808d01615040565b8651611bb1906134ca565b611bbe88602001516134ca565b611bd489606001516001600160801b0316613875565b89604001516138b8565b604051806080016040528082600001518152602001826020015181526020018260400151815260200182606001516001600160801b031681525094505050505060018055919050565b611c2f610f91565b15611c74576040805162461bcd60e51b815260206004820152601060248201526f14185d5cd8589b194e881c185d5cd95960821b604482015290519081900360640190fd5b60026001541415611cba576040805162461bcd60e51b815260206004820152601f6024820152600080516020615e52833981519152604482015290519081900360640190fd5b60026001556112f28282611cce8282613922565b61330f565b611cdb614b03565b611ce3610f91565b15611d28576040805162461bcd60e51b815260206004820152601060248201526f14185d5cd8589b194e881c185d5cd95960821b604482015290519081900360640190fd5b60026001541415611d6e576040805162461bcd60e51b815260206004820152601f6024820152600080516020615e52833981519152604482015290519081900360640190fd5b600260015560c082013580611d816125f3565b1115611d9f5760405162461bcd60e51b815260040161050290615a22565b611dac6020840184614cdf565b6001600160a01b031663b187bd266040518163ffffffff1660e01b815260040160206040518083038186803b158015611de457600080fd5b505afa158015611df8573d6000803e3d6000fd5b505050506040513d601f19601f82011682018060405250810190611e1c9190615024565b15611e395760405162461bcd60e51b815260040161050290615b90565b6000611e43612687565b9050611e568161053d6020870187614cdf565b506000611eea6040518060a00160405280846001600160a01b03168152602001876000016020810190611e899190614cdf565b6001600160a01b03168152602001876020016020810190611eaa9190615040565b60020b8152602001611ec26060890160408a01615040565b60020b8152602001611eda6080890160608a016154fb565b6001600160801b031690526139aa565b9050611f088160000151866080013583602001518860a0013561349e565b611f2f82611f196020880188614cdf565b8360600151846080015185604001516000613a35565b611fa982611f406020880188614cdf565b610130546001600160a01b0316611f5d60408a0160208b01615040565b611f6d60608b0160408c01615040565b8651611f7890613516565b611f858860200151613516565b611bd48d6060016020810190611f9b91906154fb565b6001600160801b0316613b2d565b604080516060810182528251815260208084015190820152918101519082015260018055949350505050565b60fd546001600160a01b031690565b610135546001600160a01b0316331461200f5760405162461bcd60e51b8152600401610502906159e3565b600061201d828401846152f3565b905084156120af57600081602001516001600160a01b0316630dfe16816040518163ffffffff1660e01b815260040160206040518083038186803b15801561206457600080fd5b505afa158015612078573d6000803e3d6000fd5b505050506040513d601f19601f8201168201806040525081019061209c9190614cfb565b90506120ad81836020015188613b41565b505b831561213f57600081602001516001600160a01b031663d21220a76040518163ffffffff1660e01b815260040160206040518083038186803b1580156120f457600080fd5b505afa158015612108573d6000803e3d6000fd5b505050506040513d601f19601f8201168201806040525081019061212c9190614cfb565b905061213d81836020015187613b41565b505b5050505050565b600080826001600160a01b031663c2b6b58c6040518163ffffffff1660e01b815260040160206040518083038186803b15801561218257600080fd5b505afa158015612196573d6000803e3d6000fd5b505050506040513d601f19601f820116820180604052508101906121ba9190615024565b6121d65760405162461bcd60e51b815260040161050290615baf565b6121e08484612696565b5060006121ed8585613922565b80519091501561220257612202858583613bdd565b600061220e8686613e1b565b90508061222357600080935093505050612332565b61013654604051635f9d05ad60e01b81526000918291829182916001600160a01b0390911690635f9d05ad9061225f908d908d9060040161558c565b608060405180830381600087803b15801561227957600080fd5b505af115801561228d573d6000803e3d6000fd5b505050506040513d601f19601f820116820180604052508101906122b191906150e7565b9350935093509350886001600160a01b03168a6001600160a01b03167f90195cdfd4796e4ab1175fced26945fa837ef5989e372fcd306856d8ad0ff23b87878787876040516123049594939291906156dc565b60405180910390a36123158a613e9f565b61231e85612828565b61232785612828565b975097505050505050505b9250929050565b610133546001600160a01b031661234e612687565b6001600160a01b0316148061237b5750806001600160a01b0316612370612687565b6001600160a01b0316145b6123975760405162461bcd60e51b81526004016105029061583d565b610136546040516357ba739b60e11b81526000916001600160a01b03169063af74e736906123c9908590600401615578565b60006040518083038186803b1580156123e157600080fd5b505afa1580156123f5573d6000803e3d6000fd5b505050506040513d6000823e601f3d908101601f1916820160405261241d9190810190614ee8565b805190915060005b818110156124535761244a8484838151811061243d57fe5b6020026020010151612696565b50600101612425565b50505050565b610134546001600160a01b031690565b610134546001600160a01b031633146124945760405162461bcd60e51b8152600401610502906157dd565b6000841380156124a45750600083125b806124ba57506000841280156124ba5750600083135b6124d65760405162461bcd60e51b8152600401610502906158c2565b60006124e4828401846153df565b604081015190915060008080881361256d57826001600160a01b031663d21220a76040518163ffffffff1660e01b815260040160206040518083038186803b15801561252f57600080fd5b505afa158015612543573d6000803e3d6000fd5b505050506040513d601f19601f820116820180604052508101906125679190614cfb565b876125e0565b826001600160a01b0316630dfe16816040518163ffffffff1660e01b815260040160206040518083038186803b1580156125a657600080fd5b505afa1580156125ba573d6000803e3d6000fd5b505050506040513d601f19601f820116820180604052508101906125de9190614cfb565b885b91509150610e3682856040015183613b41565b4290565b806001600160a01b03166347535d7b6040518163ffffffff1660e01b815260040160206040518083038186803b15801561263057600080fd5b505afa158015612644573d6000803e3d6000fd5b505050506040513d601f19601f820116820180604052508101906126689190615024565b6126845760405162461bcd60e51b81526004016105029061581d565b50565b6000612691613efe565b905090565b61269e614b24565b61013454604051631e81ac3360e01b81526000916001600160a01b031690631e81ac33906126d2908790879060040161558c565b606060405180830381600087803b1580156126ec57600080fd5b505af1158015612700573d6000803e3d6000fd5b505050506040513d601f19601f82011682018060405250810190612724919061511c565b9250905080156127875761273b84611b5a83613f2e565b826001600160a01b0316846001600160a01b03167f733330d4aad1a878654bf888817b79bc6478013399be29fa3b8845c81305249e8360405161277e919061568a565b60405180910390a35b610136548251604051632e4586c360e01b81526001600160a01b0390921691632e4586c3916127bc91889188916004016155a6565b600060405180830381600087803b1580156127d657600080fd5b505af11580156127ea573d6000803e3d6000fd5b505050505092915050565b6000806128028484613e1b565b9050806128215760405162461bcd60e51b815260040161050290615b4e565b9392505050565b6000808212156128485761284361283e83613f2e565b613f5a565b610f8b565b610f8b82613f5a565b612859614b3e565b610134546040805160e08101825284516001600160a01b0390811682526020808701518216908301528583015115158284015260608087015115159083015260808087015115159083015260a0808701519083015260c08087015182169083015291516310c5328760e21b81526000939290921691634314ca1c916128e091600401615d19565b61014060405180830381600087803b1580156128fb57600080fd5b505af115801561290f573d6000803e3d6000fd5b505050506040513d601f19601f820116820180604052508101906129339190615468565b6101375460a0820151919250612958916001600160a01b0390911690611b5a906134ca565b61299183600001518460200151836040015161298561297a86608001516134ca565b606087015190613fb1565b8560c001516000614016565b60c0810151156129e8576129bf6129ba6129a961408b565b85516129b490614109565b9061418b565b6134ca565b83516129ca90610eed565b12156129e85760405162461bcd60e51b815260040161050290615b6e565b826080015115612aab576000612a88846000015161013260009054906101000a90046001600160a01b03166001600160a01b031663a85494026040518163ffffffff1660e01b815260040160206040518083038186803b158015612a4b57600080fd5b505afa158015612a5f573d6000803e3d6000fd5b505050506040513d601f19601f82011682018060405250810190612a839190615517565b6141a0565b1215612aa65760405162461bcd60e51b815260040161050290615ac5565b612ab6565b8251612ab690613802565b6000612aca846000015185602001516141d4565b9050612af884600001518560200151846040015185606001518660800151868860c001518960e00151613770565b5092915050565b600081612b0c5782612821565b6101325460408051633a14199b60e11b81529051612821926001600160a01b0316916374283336916004808301926020929190829003018186803b158015612b5357600080fd5b505afa158015612b67573d6000803e3d6000fd5b505050506040513d601f19601f82011682018060405250810190612b8b9190615517565b849061418b565b6080810151612ba057612684565b805115612c0b57806020015115612bde57806080015181606001511015612bd95760405162461bcd60e51b815260040161050290615aa4565b612c06565b806080015181604001511115612c065760405162461bcd60e51b8152600401610502906157fc565b612684565b806020015115612c3d57806080015181604001511015612c065760405162461bcd60e51b815260040161050290615a41565b8060800151816060015111156126845760405162461bcd60e51b81526004016105029061587f565b80156126845760405181907f09a07769667a46c2b89124a4d731c76fb5203061073aec16319ba9c6a79a324890600090a250565b6000806000612cab84600001516125f7565b612cb985856000015161343d565b612cc7858560000151612696565b506000612d3b6040518060e00160405280886001600160a01b0316815260200187600001516001600160a01b03168152602001876020015115158152602001876040015115158152602001600015158152602001876060015181526020018760c001516001600160a01b0316815250612851565b9050612d846040518060a0016040528087602001511515815260200187604001511515815260200183600001518152602001836020015181526020018760800151815250612b92565b612d918560e00151612c65565b805160208201516080909201519097919650945092505050565b3b151590565b6000612dbc30612dab565b15905090565b612dd4826001600160a01b0316612dab565b8190612df35760405162461bcd60e51b81526004016105029190615727565b505050565b600054610100900460ff1680612e115750612e11612db1565b80612e1f575060005460ff16155b612e5a5760405162461bcd60e51b815260040180806020018281038252602e815260200180615eba602e913960400191505060405180910390fd5b600054610100900460ff16158015612e85576000805460ff1961ff0019909116610100171660011790555b612e8d614208565b8015612684576000805461ff001916905550565b600054610100900460ff1680612eba5750612eba612db1565b80612ec8575060005460ff16155b612f035760405162461bcd60e51b815260040180806020018281038252602e815260200180615eba602e913960400191505060405180910390fd5b600054610100900460ff16158015612f2e576000805460ff1961ff0019909116610100171660011790555b612f366142ad565b612e8d61439c565b612f46610f91565b612f8e576040805162461bcd60e51b815260206004820152601460248201527314185d5cd8589b194e881b9bdd081c185d5cd95960621b604482015290519081900360640190fd5b6099805460ff191690557f5db9ee0a495bf2e6ff9c91a7834c1ba4fdd244a5e8aa4e537bd38aeae4b073aa612fc1612687565b604080516001600160a01b039092168252519081900360200190a1565b60006128218360ff601285900316600a0a61352a565b612ffd826125f7565b6101365460405163659e3dc760e11b81526001600160a01b039091169063cb3c7b8e9061302e908690600401615578565b60206040518083038186803b15801561304657600080fd5b505afa15801561305a573d6000803e3d6000fd5b505050506040513d601f19601f8201168201806040525081019061307e9190615024565b1561309b5760405162461bcd60e51b815260040161050290615944565b6130a483614439565b6130c05760405162461bcd60e51b8152600401610502906157bd565b60006130cc84846127f5565b905060006130da828461352a565b12156130f85760405162461bcd60e51b815260040161050290615924565b6000613102612687565b905061310e818561343d565b6131188585612696565b506131238185612696565b50600061312f86610eed565b905060008061314088888589614454565b9150915061315388888484600080613a35565b600061316961316061408b565b6129b484612828565b905061317889611b5a83613516565b610137546001600160a01b03166000613192836002614543565b90506000808712156131a6578391506131bf565b6131b084836145aa565b90506131bf83611b5a836134ca565b60006131ca8d610eed565b9050600081121561325057600061322461013160149054906101000a900460ff16866001600160a01b031663213037c46040518163ffffffff1660e01b815260040160206040518083038186803b158015610f4d57600080fd5b905061322f82613f2e565b81121561324e5760405162461bcd60e51b815260040161050290615968565b505b50600061325c87613f2e565b9050600061327b61326c856134ca565b61327589613f2e565b90614607565b905061328c8a8e8484600080613a35565b6132958a613802565b8c6001600160a01b03168e6001600160a01b03167fd9aced30440caca81570436bc942f816cfd95a3f08f700a2aeb6334c7cb5b4976132d38a612828565b6132dc8c612828565b8a8f6040516132ee9493929190615d84565b60405180910390a36132ff8e613e9f565b5050505050505050505050505050565b613318826125f7565b805161332357612df3565b60006133788461013260009054906101000a90046001600160a01b03166001600160a01b031663a85494026040518163ffffffff1660e01b815260040160206040518083038186803b158015612a4b57600080fd5b1280613388575061338883614439565b6133a45760405162461bcd60e51b815260040161050290615b0c565b6133ae8383612696565b50612df3838383613bdd565b6133c2610f91565b15613407576040805162461bcd60e51b815260206004820152601060248201526f14185d5cd8589b194e881c185d5cd95960821b604482015290519081900360640190fd5b6099805460ff191660011790557f62e78cea01bee320cd4e420270b5ea74000d11b0c9f74754ebdbfc544b05a258612fc1612687565b61013654604051633f1cdc8560e21b81526001600160a01b039091169063fc73721490613470908590859060040161558c565b600060405180830381600087803b15801561348a57600080fd5b505af115801561213d573d6000803e3d6000fd5b8284101580156134ae5750808210155b6124535760405162461bcd60e51b8152600401610502906158e2565b60006001600160ff1b038211156135125760405162461bcd60e51b8152600401808060200182810382526028815260200180615f506028913960400191505060405180910390fd5b5090565b6000613521826134ca565b60000392915050565b60008261353957506000610f8b565b8260001914801561354d5750600160ff1b82145b156135895760405162461bcd60e51b8152600401808060200182810382526027815260200180615f296027913960400191505060405180910390fd5b8282028284828161359657fe5b05146128215760405162461bcd60e51b8152600401808060200182810382526027815260200180615f296027913960400191505060405180910390fd5b600081613627576040805162461bcd60e51b815260206004820181905260248201527f5369676e6564536166654d6174683a206469766973696f6e206279207a65726f604482015290519081900360640190fd5b8160001914801561363b5750600160ff1b83145b156136775760405162461bcd60e51b8152600401808060200182810382526021815260200180615ee86021913960400191505060405180910390fd5b600082848161368257fe5b05949350505050565b604080516bffffffffffffffffffffffff19606096871b81166020808401919091529590961b9095166034860152600292830b60e890811b60488701529190920b901b604b8401528051602e818503018152604e9093019052815191012090565b610134546040516399e4a77160e01b81526000916001600160a01b0316906399e4a771906137209085908590600401615642565b60206040518083038186803b15801561373857600080fd5b505afa15801561374c573d6000803e3d6000fd5b505050506040513d601f19601f82011682018060405250810190610f8b9190614cfb565b866001600160a01b0316886001600160a01b03167f968bc4f738eae0486dc6736c4b427dbafa4acfdf6eaf223337791ddeb3a562478888888888886040516137bd969594939291906156ff565b60405180910390a35050505050505050565b6101365460405163874044f360e01b81526001600160a01b039091169063874044f3906134709085908590600401615629565b60006138578261013260009054906101000a90046001600160a01b03166001600160a01b031663543ce73a6040518163ffffffff1660e01b815260040160206040518083038186803b158015612a4b57600080fd5b12156126845760405162461bcd60e51b8152600401610502906158a0565b80600f81900b8114610ee85760405162461bcd60e51b8152600401808060200182810382526027815260200180615e726027913960400191505060405180910390fd5b866001600160a01b0316886001600160a01b03168a6001600160a01b03167fcb47d8bf351d355bdd5497973533eada41777b4509f2585a62ae246336ebaa9489898989898960405161390f969594939291906156a9565b60405180910390a4505050505050505050565b610135546040516321b499f560e11b81526060916001600160a01b03169063436933ea90613956908690869060040161558c565b60006040518083038186803b15801561396e57600080fd5b505afa158015613982573d6000803e3d6000fd5b505050506040513d6000823e601f3d908101601f191682016040526128219190810190614f85565b6139b2614b96565b61013554604051635b778b9d60e01b81526001600160a01b0390911690635b778b9d906139e3908590600401615ca1565b60a060405180830381600087803b1580156139fd57600080fd5b505af1158015613a11573d6000803e3d6000fd5b505050506040513d601f19601f82011682018060405250810190610f8b9190615377565b60008415613ae45761013454604080516080810182526001600160a01b038a811682528981166020830152818301899052606082018890529151631393a46960e01b81529190921691631393a46991613a919190600401615c68565b60206040518083038186803b158015613aa957600080fd5b505afa158015613abd573d6000803e3d6000fd5b505050506040513d601f19601f82011682018060405250810190613ae1919061505c565b90505b613afa8787878785613af5896134ca565b614016565b613b248787878786613b0c8d8d6141d4565b87613b168e6136ec565b6001600160a01b0316613770565b50505050505050565b6000613521826001600160801b0316613875565b60405163a9059cbb60e01b81526001600160a01b0384169063a9059cbb90613b6f9085908590600401615629565b602060405180830381600087803b158015613b8957600080fd5b505af1158015613b9d573d6000803e3d6000fd5b505050506040513d601f19601f82011682018060405250810190613bc19190615024565b612df35760405162461bcd60e51b815260040161050290615a03565b613be5614b96565b815160005b81811015613dff576101355484516000916001600160a01b03169063acf7182790879085908110613c1757fe5b60200260200101516040518263ffffffff1660e01b8152600401613c3b919061568a565b6101206040518083038186803b158015613c5457600080fd5b505afa158015613c68573d6000803e3d6000fd5b505050506040513d601f19601f82011682018060405250810190613c8c9190615260565b9050848281518110613c9a57fe5b6020026020010151613cb688888460200151856040015161368b565b14613cd35760405162461bcd60e51b81526004016105029061585e565b6000613d316040518060a001604052808a6001600160a01b03168152602001896001600160a01b03168152602001846020015160020b8152602001846040015160020b815260200184600001516001600160801b03168152506139aa565b80518651919250613d42919061466c565b855260208082015190860151613d579161466c565b602086015260408082015190860151613d6f9161466c565b604086015260608082015190860151613d8791614607565b606086015260808082015190860151613d9f91614607565b608086015261013054602083015160408401518351613df5938c938c936001600160a01b0390921692909190613dd490613516565b613de18860200151613516565b8951611bd4906001600160801b0316613b2d565b5050600101613bea565b5061213f85858460600151856080015186604001516000613a35565b6101365460405163165c4e2960e31b81526000916001600160a01b03169063b2e2714890613e4f908690869060040161558c565b60206040518083038186803b158015613e6757600080fd5b505afa158015613e7b573d6000803e3d6000fd5b505050506040513d601f19601f82011682018060405250810190612821919061505c565b61013354604051630640267b60e51b81526001600160a01b039091169063c804cf6090613ed0908490600401615578565b600060405180830381600087803b158015613eea57600080fd5b505af115801561213f573d6000803e3d6000fd5b600060143610801590613f155750613f1533610ed6565b15613f29575060131936013560601c61094e565b503390565b6000600160ff1b8213613f535760405162461bcd60e51b8152600401610502906159ac565b5060000390565b600080821215613512576040805162461bcd60e51b815260206004820181905260248201527f53616665436173743a2076616c7565206d75737420626520706f736974697665604482015290519081900360640190fd5b6000818303818312801590613fc65750838113155b80613fdb5750600083128015613fdb57508381135b6128215760405162461bcd60e51b8152600401808060200182810382526024815260200180615f786024913960400191505060405180910390fd5b610136546040516389f9217760e01b81526001600160a01b03909116906389f9217790614051908990899089908990899089906004016155f3565b600060405180830381600087803b15801561406b57600080fd5b505af115801561407f573d6000803e3d6000fd5b50505050505050505050565b610132546040805163fedf924b60e01b815290516000926001600160a01b03169163fedf924b916004808301926020929190829003018186803b1580156140d157600080fd5b505afa1580156140e5573d6000803e3d6000fd5b505050506040513d601f19601f820116820180604052508101906126919190615517565b61013654604051633666e41760e11b81526000916001600160a01b031690636ccdc82e9061413b908590600401615578565b60206040518083038186803b15801561415357600080fd5b505afa158015614167573d6000803e3d6000fd5b505050506040513d601f19601f82011682018060405250810190610f8b919061505c565b6000612821838362ffffff16620f42406146c6565b61013354604051633ffd130360e01b81526000916001600160a01b031690633ffd130390613e4f9086908690600401615661565b6101365460405163d50d01b760e01b81526000916001600160a01b03169063d50d01b790613e4f908690869060040161558c565b600054610100900460ff16806142215750614221612db1565b8061422f575060005460ff16155b61426a5760405162461bcd60e51b815260040180806020018281038252602e815260200180615eba602e913960400191505060405180910390fd5b600054610100900460ff16158015614295576000805460ff1961ff0019909116610100171660011790555b600180558015612684576000805461ff001916905550565b600054610100900460ff16806142c657506142c6612db1565b806142d4575060005460ff16155b61430f5760405162461bcd60e51b815260040180806020018281038252602e815260200180615eba602e913960400191505060405180910390fd5b600054610100900460ff1615801561433a576000805460ff1961ff0019909116610100171660011790555b614342614775565b600061434c612687565b606580546001600160a01b0319166001600160a01b03831690811790915560405191925090600090600080516020615f09833981519152908290a3508015612684576000805461ff001916905550565b600054610100900460ff16806143b557506143b5612db1565b806143c3575060005460ff16155b6143fe5760405162461bcd60e51b815260040180806020018281038252602e815260200180615eba602e913960400191505060405180910390fd5b600054610100900460ff16158015614429576000805460ff1961ff0019909116610100171660011790555b614431614806565b612e8d6148a6565b600061444482614951565b61444d83610eed565b1292915050565b6101365460405163041216fb60e21b8152600091829182916001600160a01b0316906310485bec9061448e908a908a908a906004016155a6565b60206040518083038186803b1580156144a657600080fd5b505afa1580156144ba573d6000803e3d6000fd5b505050506040513d601f19601f820116820180604052508101906144de919061505c565b90506144e981612828565b6144f285612828565b11806144fc575083155b15614505578093505b600061451085613f2e565b905060006145336145236129ba8a614983565b8790670de0b6b3a7640000614a37565b9199919850909650505050505050565b6000808211614599576040805162461bcd60e51b815260206004820152601a60248201527f536166654d6174683a206469766973696f6e206279207a65726f000000000000604482015290519081900360640190fd5b8183816145a257fe5b049392505050565b600082821115614601576040805162461bcd60e51b815260206004820152601e60248201527f536166654d6174683a207375627472616374696f6e206f766572666c6f770000604482015290519081900360640190fd5b50900390565b600082820181831280159061461c5750838112155b80614631575060008312801561463157508381125b6128215760405162461bcd60e51b8152600401808060200182810382526021815260200180615e996021913960400191505060405180910390fd5b600082820183811015612821576040805162461bcd60e51b815260206004820152601b60248201527f536166654d6174683a206164646974696f6e206f766572666c6f770000000000604482015290519081900360640190fd5b60008080600019858709868602925082811090839003039050806146fc57600084116146f157600080fd5b508290049050612821565b80841161470857600080fd5b6000848688096000868103871696879004966002600389028118808a02820302808a02820302808a02820302808a02820302808a02820302808a02909103029181900381900460010186841190950394909402919094039290920491909117919091029150509392505050565b600054610100900460ff168061478e575061478e612db1565b8061479c575060005460ff16155b6147d75760405162461bcd60e51b815260040180806020018281038252602e815260200180615eba602e913960400191505060405180910390fd5b600054610100900460ff16158015614802576000805460ff1961ff0019909116610100171660011790555b612e8d5b600054610100900460ff168061481f575061481f612db1565b8061482d575060005460ff16155b6148685760405162461bcd60e51b815260040180806020018281038252602e815260200180615eba602e913960400191505060405180910390fd5b600054610100900460ff16158015612e8d576000805460ff1961ff0019909116610100171660011790558015612684576000805461ff001916905550565b600054610100900460ff16806148bf57506148bf612db1565b806148cd575060005460ff16155b6149085760405162461bcd60e51b815260040180806020018281038252602e815260200180615eba602e913960400191505060405180910390fd5b600054610100900460ff16158015614933576000805460ff1961ff0019909116610100171660011790555b6099805460ff191690558015612684576000805461ff001916905550565b6101365460405163f75c266d60e01b81526000916001600160a01b03169063f75c266d9061413b908590600401615578565b6000816001600160a01b0316631208064761013260009054906101000a90046001600160a01b03166001600160a01b0316633e742e3b6040518163ffffffff1660e01b815260040160206040518083038186803b1580156149e357600080fd5b505afa1580156149f7573d6000803e3d6000fd5b505050506040513d601f19601f82011682018060405250810190614a1b9190615533565b6040518263ffffffff1660e01b815260040161413b9190615da8565b60008060008512614a485784614a51565b614a5185613f2e565b90506000808512614a625784614a6b565b614a6b85613f2e565b905060008087128015614a7e5750600086135b80614a945750600087138015614a945750600086125b614a9f576000614aa2565b60015b90506000614ab18484886146c6565b905081614ac657614ac1816134ca565b614acf565b614acf81613516565b98975050505050505050565b6040518060800160405280600081526020016000815260200160008152602001600081525090565b60405180606001604052806000815260200160008152602001600081525090565b604051806040016040528060008152602001600081525090565b6040518061014001604052806000815260200160008152602001600081526020016000815260200160008152602001600081526020016000815260200160008152602001600060020b81526020016000151581525090565b6040518060a0016040528060008152602001600081526020016000815260200160008152602001600081525090565b8035610ee881615df9565b8035610ee881615e0e565b8051610ee881615e0e565b60008083601f840112614bf7578182fd5b5081356001600160401b03811115614c0d578182fd5b60208301915083602082850101111561233257600080fd5b8051610ee881615e1c565b6000610100808385031215614c43578182fd5b604051908101906001600160401b0382118183101715614c5f57fe5b81604052809250614c6f84614bc5565b8152614c7d60208501614bd0565b6020820152614c8e60408501614bd0565b6040820152606084013560608201526080840135608082015260a084013560a0820152614cbd60c08501614bc5565b60c082015260e084013560e0820152505092915050565b8051610ee881615e2b565b600060208284031215614cf0578081fd5b813561282181615df9565b600060208284031215614d0c578081fd5b815161282181615df9565b60008060408385031215614d29578081fd5b8235614d3481615df9565b91506020830135614d4481615df9565b809150509250929050565b600080600080600080600060e0888a031215614d69578283fd5b8735614d7481615df9565b96506020880135614d8481615df9565b95506040880135614d9481615df9565b94506060880135614da481615df9565b93506080880135614db481615df9565b925060a0880135614dc481615df9565b915060c0880135614dd481615df9565b8091505092959891949750929550565b60008060008060608587031215614df9578182fd5b8435614e0481615df9565b93506020850135614e1481615df9565b925060408501356001600160401b0380821115614e2f578384fd5b818701915087601f830112614e42578384fd5b813581811115614e50578485fd5b8860208083028501011115614e63578485fd5b95989497505060200194505050565b600080600060608486031215614e86578081fd5b8335614e9181615df9565b92506020840135614ea181615df9565b929592945050506040919091013590565b6000806101208385031215614ec5578182fd5b8235614ed081615df9565b9150614edf8460208501614c30565b90509250929050565b60006020808385031215614efa578182fd5b82516001600160401b03811115614f0f578283fd5b8301601f81018513614f1f578283fd5b8051614f32614f2d82615ddc565b615db9565b8181528381019083850185840285018601891015614f4e578687fd5b8694505b83851015614f79578051614f6581615df9565b835260019490940193918501918501614f52565b50979650505050505050565b60006020808385031215614f97578182fd5b82516001600160401b03811115614fac578283fd5b8301601f81018513614fbc578283fd5b8051614fca614f2d82615ddc565b8181528381019083850185840285018601891015614fe6578687fd5b8694505b83851015614f79578051835260019490940193918501918501614fea565b600060208284031215615019578081fd5b813561282181615e0e565b600060208284031215615035578081fd5b815161282181615e0e565b600060208284031215615051578081fd5b813561282181615e1c565b60006020828403121561506d578081fd5b5051919050565b60008060408385031215615086578182fd5b505080516020909101519092909150565b600080600080606085870312156150ac578182fd5b843593506020850135925060408501356001600160401b038111156150cf578283fd5b6150db87828801614be6565b95989497509550505050565b600080600080608085870312156150fc578182fd5b505082516020840151604085015160609095015191969095509092509050565b600080828403606081121561512f578283fd5b835192506040601f1982011215615144578182fd5b50604051604081018181106001600160401b038211171561516157fe5b60409081526020858101518352940151938101939093525092909150565b60006101208284031215615191578081fd5b50919050565b6000608082840312156151a8578081fd5b604051608081018181106001600160401b03821117156151c457fe5b806040525082518152602083015160208201526040830151604082015260608301516151ef81615e2b565b60608201529392505050565b600060a08284031215615191578081fd5b60006060828403121561521d578081fd5b604051606081018181106001600160401b038211171561523957fe5b80604052508251815260208301516020820152604083015160408201528091505092915050565b6000610120808385031215615273578182fd5b61527c81615db9565b905061528783614cd4565b815261529560208401614c25565b60208201526152a660408401614c25565b6040820152606083015160608201526080830151608082015260a083015160a082015260c083015160c082015260e083015160e08201526101008084015181830152508091505092915050565b600060408284031215615304578081fd5b604051604081018181106001600160401b038211171561532057fe5b604052823561532e81615df9565b8152602083013561533e81615df9565b60208201529392505050565b6000610100828403121561535c578081fd5b6128218383614c30565b600060e08284031215615191578081fd5b600060a08284031215615388578081fd5b60405160a081018181106001600160401b03821117156153a457fe5b806040525082518152602083015160208201526040830151604082015260608301516060820152608083015160808201528091505092915050565b600060a082840312156153f0578081fd5b60405160a081018181106001600160401b038211171561540c57fe5b604052823561541a81615df9565b8152602083013561542a81615df9565b6020820152604083013561543d81615df9565b6040820152606083013561545081615e40565b60608201526080928301359281019290925250919050565b600061014080838503121561547b578182fd5b61548481615db9565b9050825181526020830151602082015260408301516040820152606083015160608201526080830151608082015260a083015160a082015260c083015160c082015260e083015160e08201526101006154de818501614c25565b908201526101206154f0848201614bdb565b908201529392505050565b60006020828403121561550c578081fd5b813561282181615e2b565b600060208284031215615528578081fd5b815161282181615e40565b600060208284031215615544578081fd5b815163ffffffff81168114612821578182fd5b600060208284031215615568578081fd5b815160ff81168114612821578182fd5b6001600160a01b0391909116815260200190565b6001600160a01b0392831681529116602082015260400190565b6001600160a01b039384168152919092166020820152604081019190915260600190565b6001600160a01b0394851681529290931660208301526040820152606081019190915260800190565b6001600160a01b03968716815294909516602085015260408401929092526060830152608082015260a081019190915260c00190565b6001600160a01b03929092168252602082015260400190565b6001600160a01b0392909216825263ffffffff16602082015260400190565b6001600160a01b0392909216825262ffffff16602082015260400190565b901515815260200190565b90815260200190565b9283526020830191909152604082015260600190565b600296870b81529490950b602085015260408401929092526060830152600f0b608082015260a081019190915260c00190565b948552602085019390935260408401919091526060830152608082015260a00190565b958652602086019490945260408501929092526060840152608083015260a082015260c00190565b6000602080835283518082850152825b8181101561575357858101830151858201604001528201615737565b818111156157645783604083870101525b50601f01601f1916929092016040019392505050565b60208082526007908201526643485f4f4d505360c81b604082015260600190565b60208082526008908201526708690bea2889c62760c31b604082015260600190565b60208082526006908201526521a42fa2a0ab60d11b604082015260600190565b60208082526005908201526443485f4f4560d81b604082015260600190565b60208082526007908201526643485f544d525360c81b604082015260600190565b60208082526006908201526543485f4d4e4f60d01b604082015260600190565b60208082526007908201526610d217d3d593d560ca1b604082015260600190565b60208082526007908201526643485f4f4e424d60c81b604082015260600190565b60208082526007908201526610d217d513549360ca1b604082015260600190565b60208082526008908201526743485f4e4546434960c01b604082015260600190565b60208082526006908201526543485f46305360d01b604082015260600190565b60208082526007908201526621a42fa829a1a360c91b604082015260600190565b60208082526007908201526621a42fa22aaa2160c91b604082015260600190565b60208082526006908201526510d217d5d31160d21b604082015260600190565b6020808252600a908201526943485f434c575449534f60b01b604082015260600190565b60208082526006908201526543485f49494360d01b604082015260600190565b6020808252600a908201526910d217d4d2139053d41560b21b604082015260600190565b6020808252601c908201527f506572704d6174683a20696e76657273696f6e206f766572666c6f7700000000604082015260600190565b60208082526006908201526521a42fa727a160d11b604082015260600190565b60208082526005908201526421a42faa2360d91b604082015260600190565b60208082526005908201526443485f544560d81b604082015260600190565b60208082526007908201526610d217d513149360ca1b604082015260600190565b60208082526007908201526643485f54424e4560c81b604082015260600190565b60208082526007908201526643485f54514e4560c81b604082015260600190565b60208082526007908201526643485f544c525360c81b604082015260600190565b60208082526008908201526743485f4e4546434d60c01b604082015260600190565b6020808252600b908201526a043485f43414c57524654560ac1b604082015260600190565b60208082526007908201526643485f4e45584f60c81b604082015260600190565b60208082526007908201526643485f44414e4360c81b604082015260600190565b60208082526006908201526521a42fa829ad60d11b604082015260600190565b60208082526008908201526743485f4e454d524d60c01b604082015260600190565b602080825260059082015264043485f4d560dc1b604082015260600190565b60208082526006908201526543485f4d4e4360d01b604082015260600190565b60006101008201905060018060a01b03808451168352806020850151166020840152506040830151604083015260608301516060830152608083015160020b608083015260a083015160020b60a083015260c0830151805160c0840152602081015160e08401525092915050565b8151815260208083015190820152604080830151908201526060918201519181019190915260800190565b81516001600160a01b03908116825260208084015190911690820152604080830151908201526060918201519181019190915260800190565b81516001600160a01b03908116825260208084015190911690820152604080830151600290810b9183019190915260608084015190910b908201526080918201516001600160801b03169181019190915260a00190565b81518152602080830151908201526040918201519181019190915260600190565b81516001600160a01b03908116825260208084015182169083015260408084015115159083015260608084015115159083015260808084015115159083015260a0838101519083015260c092830151169181019190915260e00190565b918252602082015260400190565b938452602084019290925260408301526001600160a01b0316606082015260800190565b63ffffffff91909116815260200190565b6040518181016001600160401b0381118282101715615dd457fe5b604052919050565b60006001600160401b03821115615def57fe5b5060209081020190565b6001600160a01b038116811461268457600080fd5b801515811461268457600080fd5b8060020b811461268457600080fd5b6001600160801b038116811461268457600080fd5b62ffffff8116811461268457600080fdfe5265656e7472616e637947756172643a207265656e7472616e742063616c6c0053616665436173743a2076616c756520646f65736e27742066697420696e2031323820626974735369676e6564536166654d6174683a206164646974696f6e206f766572666c6f77496e697469616c697a61626c653a20636f6e747261637420697320616c726561647920696e697469616c697a65645369676e6564536166654d6174683a206469766973696f6e206f766572666c6f778be0079c531659141344cd1fd0a4f28419497f9722a3daafe3b4186f6b6457e05369676e6564536166654d6174683a206d756c7469706c69636174696f6e206f766572666c6f7753616665436173743a2076616c756520646f65736e27742066697420696e20616e20696e743235365369676e6564536166654d6174683a207375627472616374696f6e206f766572666c6f77a2646970667358221220db782b13b075139ac86fd4cfebe3f1b41e175a7fe2dd5b3c8af2a366c826d27c64736f6c63430007060033",
  "linkReferences": {},
  "deployedLinkReferences": {}
}