{
  "_format": "hh-sol-artifact-1",
  "contractName": "ChainlinkPriceFeedV1R1",
  "sourceName": "contracts/ChainlinkPriceFeedV1R1.sol",
  "abi": [
    {
      "inputs": [
        {
          "internalType": "contract AggregatorV3Interface",
          "name": "aggregator",
          "type": "address"
        },
        {
          "internalType": "contract AggregatorV3Interface",
          "name": "sequencerUptimeFeed",
          "type": "address"
        }
      ],
      "stateMutability": "nonpayable",
      "type": "constructor"
    },
    {
      "inputs": [],
      "name": "decimals",
      "outputs": [
        {
          "internalType": "uint8",
          "name": "",
          "type": "uint8"
        }
      ],
      "stateMutability": "view",
      "type": "function"
    },
    {
      "inputs": [],
      "name": "getAggregator",
      "outputs": [
        {
          "internalType": "address",
          "name": "",
          "type": "address"
        }
      ],
      "stateMutability": "view",
      "type": "function"
    },
    {
      "inputs": [
        {
          "internalType": "uint256",
          "name": "interval",
          "type": "uint256"
        }
      ],
      "name": "getPrice",
      "outputs": [
        {
          "internalType": "uint256",
          "name": "",
          "type": "uint256"
        }
      ],
      "stateMutability": "view",
      "type": "function"
    },
    {
      "inputs": [
        {
          "internalType": "uint80",
          "name": "roundId",
          "type": "uint80"
        }
      ],
      "name": "getRoundData",
      "outputs": [
        {
          "internalType": "uint256",
          "name": "",
          "type": "uint256"
        },
        {
          "internalType": "uint256",
          "name": "",
          "type": "uint256"
        }
      ],
      "stateMutability": "view",
      "type": "function"
    },
    {
      "inputs": [],
      "name": "getSequencerUptimeFeed",
      "outputs": [
        {
          "internalType": "address",
          "name": "",
          "type": "address"
        }
      ],
      "stateMutability": "view",
      "type": "function"
    }
  ],
  "bytecode": "0x60c060405234801561001057600080fd5b50604051610b7a380380610b7a8339818101604052604081101561003357600080fd5b508051602091820151909161005a906001600160a01b0384169061059261010c821b17901c565b610095576040805162461bcd60e51b81526020600482015260076024820152664350465f414e4360c81b604482015290519081900360640190fd5b6100b1816001600160a01b031661010c60201b6105921760201c565b6100ee576040805162461bcd60e51b81526020600482015260096024820152684350465f5355464e4360b81b604482015290519081900360640190fd5b6001600160601b0319606092831b8116608052911b1660a052610112565b3b151590565b60805160601c60a05160601c610a21610159600039806102fc528061032552508061011852806101a252806101cc52806105a352806107a7528061086d5250610a216000f3fe608060405234801561001057600080fd5b50600436106100575760003560e01c8063313ce5671461005c5780633ad59dbc1461007a5780639a6fc8f51461009e578063a056076c146100dd578063e7572230146100e5575b600080fd5b610064610114565b6040805160ff9092168252519081900360200190f35b6100826101a0565b604080516001600160a01b039092168252519081900360200190f35b6100c4600480360360208110156100b457600080fd5b50356001600160501b03166101c4565b6040805192835260208301919091528051918290030190f35b6100826102fa565b610102600480360360208110156100fb57600080fd5b503561031e565b60408051918252519081900360200190f35b60007f00000000000000000000000000000000000000000000000000000000000000006001600160a01b031663313ce5676040518163ffffffff1660e01b815260040160206040518083038186803b15801561016f57600080fd5b505afa158015610183573d6000803e3d6000fd5b505050506040513d602081101561019957600080fd5b5051905090565b7f000000000000000000000000000000000000000000000000000000000000000090565b6000806000807f00000000000000000000000000000000000000000000000000000000000000006001600160a01b0316639a6fc8f5866040518263ffffffff1660e01b815260040180826001600160501b0316815260200191505060a06040518083038186803b15801561023757600080fd5b505afa15801561024b573d6000803e3d6000fd5b505050506040513d60a081101561026157600080fd5b5060208101516060909101519092509050600082136102b0576040805162461bcd60e51b815260206004820152600660248201526504350465f49560d41b604482015290519081900360640190fd5b600081116102f0576040805162461bcd60e51b81526020600482015260086024820152674350465f52494e4360c01b604482015290519081900360640190fd5b9092509050915091565b7f000000000000000000000000000000000000000000000000000000000000000090565b60008060007f00000000000000000000000000000000000000000000000000000000000000006001600160a01b031663feaf968c6040518163ffffffff1660e01b815260040160a06040518083038186803b15801561037c57600080fd5b505afa158015610390573d6000803e3d6000fd5b505050506040513d60a08110156103a657600080fd5b506020810151604090910151909250905081156103f3576040805162461bcd60e51b815260206004820152600660248201526510d41197d4d160d21b604482015290519081900360640190fd5b42819003610e108111610438576040805162461bcd60e51b81526020600482015260086024820152674350465f47504e4f60c01b604482015290519081900360640190fd5b6000806000610445610598565b925092509250600061045561066f565b90506000610463828b610673565b905089158061047957506001600160501b038516155b806104845750808311155b1561049957839850505050505050505061058d565b8260006104a68483610673565b905060006104b487836106d5565b905060005b6001600160501b0389166104f15782156104dc576104d78284610735565b6104de565b875b9c5050505050505050505050505061058d565b6001890398506000806105038b61079c565b92509250508681116105365761052d61052661051f888a610673565b84906106d5565b8590610925565b93505050610567565b6105408682610673565b925061054f61052683856106d5565b935061055b8584610925565b945080955050506104b9565b811561057c57610577828f610735565b61057e565b875b9c505050505050505050505050505b919050565b3b151590565b6000806000806000807f00000000000000000000000000000000000000000000000000000000000000006001600160a01b031663feaf968c6040518163ffffffff1660e01b815260040160a06040518083038186803b1580156105fa57600080fd5b505afa15801561060e573d6000803e3d6000fd5b505050506040513d60a081101561062457600080fd5b50805160208201516060909201519196509350859250905060008212156106635761064e8361097f565b61065a6001840361079c565b90965090935090505b91945090915050909192565b4290565b6000828211156106ca576040805162461bcd60e51b815260206004820152601e60248201527f536166654d6174683a207375627472616374696f6e206f766572666c6f770000604482015290519081900360640190fd5b508082035b92915050565b6000826106e4575060006106cf565b828202828482816106f157fe5b041461072e5760405162461bcd60e51b81526004018080602001828103825260218152602001806109cb6021913960400191505060405180910390fd5b9392505050565b600080821161078b576040805162461bcd60e51b815260206004820152601a60248201527f536166654d6174683a206469766973696f6e206279207a65726f000000000000604482015290519081900360640190fd5b81838161079457fe5b049392505050565b6000806000806000807f00000000000000000000000000000000000000000000000000000000000000006001600160a01b0316639a6fc8f5886040518263ffffffff1660e01b815260040180826001600160501b0316815260200191505060a06040518083038186803b15801561081257600080fd5b505afa158015610826573d6000803e3d6000fd5b505050506040513d60a081101561083c57600080fd5b508051602082015160609092015190945090925090505b6000821215610918576108658361097f565b6001830392507f00000000000000000000000000000000000000000000000000000000000000006001600160a01b0316639a6fc8f5846040518263ffffffff1660e01b815260040180826001600160501b0316815260200191505060a06040518083038186803b1580156108d857600080fd5b505afa1580156108ec573d6000803e3d6000fd5b505050506040513d60a081101561090257600080fd5b5060208101516060909101519092509050610853565b9196909550909350915050565b60008282018381101561072e576040805162461bcd60e51b815260206004820152601b60248201527f536166654d6174683a206164646974696f6e206f766572666c6f770000000000604482015290519081900360640190fd5b6000816001600160501b0316116109c7576040805162461bcd60e51b8152602060048201526007602482015266086a08cbe9c8a960cb1b604482015290519081900360640190fd5b5056fe536166654d6174683a206d756c7469706c69636174696f6e206f766572666c6f77a264697066735822122041ca0fa6c5a8be889cc767ee444543ef00259396df8a21387b0fbf19c5a0628e64736f6c63430007060033",
  "linkReferences": {},
  "deployedLinkReferences": {}
}